:02000002D0002C
:1040000000400D0058610D00000006000C00050185
:084010000401D60700000000C6
:04401800485E0D00F1
:10401C0009480A49884208B505D0094A824202D0AB
:10402C00121A01F087FE0748074A0021121A01F004
:10403C00A9FE014808BD00BFCCE50320C4600D00FB
:10404C0038E6032038E60320F0E7032070B5074E6E
:10405C00074C00F0D7FDA41BA4080025A54200D1F5
:10406C0070BD56F8043B98470135F7E794600D0096
:10407C00B8600D0000F026B808B500F071F8BDE886
:10408C00084000F081BD00F083BB00F081BB00F064
:10409C0087BB00F085BB0078B0FA80F04009704710
:1040AC00012303707047036808681847012A03D07E
:1040BC00022A03D0002070470160FBE70B68036005
:1040CC00F8E700001FB51B4C0121208801F094FD7E
:1040DC002088002101F0A1FD002317491748022276
:1040EC0000F02EFB164A1749174800F02CFE174B10
:1040FC000093174B03931020164B0293FFF7C3FF4B
:10410C00044678B100238360029B33B102226946D6
:10411C009847039BE360029BA3600F4A0F4821461C
:10412C0000F011FE029B1BB169460322084698471A
:10413C0004B010BDCCE5032040E603205C5E0D000E
:10414C006B5E0D00B1410D00FF4C0D0065420D0082
:10415C00B3400D00B9400D00795E0D002B4D0D00E4
:10416C0008B5034B188801F071FD024B186008BDAF
:10417C00CCE5032040E6032038B5046805467CB145
:10418C006368013B63605BB9236820469B68984772
:10419C00A368013BA3601BB923682046DB689847E2
:1041AC00284638BD7FB52149214D064600F00FFC4D
:1041BC00044698B11F4B0121188801F02EFD2B7875
:1041CC001D498DF8003000223C2302A800F0AEFE01
:1041DC0003A8FFF7D1FF012004B070BD174930468A
:1041EC0000F0F5FB024690B1124B2146188801F005
:1041FC0014FD2B7812498DF8003022463C2302A87E
:10420C0000F094FE03A8FFF7B7FF2046E4E72B78F5
:10421C000C498DF8003002A83C2300F087FE03A85F
:10422C00FFF7AAFF4FF0FF30D6E700BF825E0D000C
:10423C003CE60320CCE50320855E0D00985E0D0066
:10424C009C5E0D00B15E0D000B68036013B15A68E3
:10425C0001325A607047000030B599B05B4D039045
:10426C0001F0E3FD0399024604A801F031FC069C21
:10427C00049B0E9305A90FA8FFF7E6FF0EAA214693
:10428C0012A801F0E5FB0FA8FFF776FF12A801F0CA
:10429C00F7FB002800F09780169C129B0E9313A935
:1042AC000FA8FFF7D1FF0EAA214607A801F0BEFA0E
:1042BC000FA8FFF761FF099C079B0A9308A90BA89D
:1042CC00FFF7C2FF0AAA21460EA801F09DFB0BA81E
:1042DC00FFF752FF10990AA800F04BFB0FA8FFF74D
:1042EC004BFF08A8FFF748FF159C129B079313A9D7
:1042FC0008A8FFF7A9FF214607AA0EA801F084FB26
:10430C0008A8FFF739FF1098294601F067FD04460D
:10431C000FA8FFF731FF002C51D12D492D4D0AA8C4
:10432C0000F055FBE8B12B78294A2B498DF8003069
:10433C000EA83C2300F0FAFD0FA8FFF71DFF274B3A
:10434C000121188801F069FC01240AA800F0C6FAC2
:10435C0013A8FFF711FF05A8FFF70EFF204619B0B1
:10436C0030BD1F490AA800F032FB2B788DF80030C5
:10437C003C2368B11A4A18490EA800F0D7FD0FA8C3
:10438C00FFF7FAFE154B2146188801F046FCDCE7D6
:10439C00144A11490EA800F0C9FD0FA8FFF7ECFE56
:1043AC002B780A9A10498DF800300EA83C2300F0A7
:1043BC00BDFD0FA8FFF7E0FE4FF0FF34C5E70AA8DC
:1043CC0000F08CFA62E76FF00104C1E7C45E0D00E7
:1043DC00CB5E0D003CE60320D15E0D00CCE5032046
:1043EC00DB5E0D00E05E0D00EF5E0D00014B012267
:1043FC001A7070473CE6032008B5024B1B689B689B
:10440C00019308BD6802030008B5024B1B68DB680A
:10441C00019308BD6802030008B5024B1B685B687A
:10442C00019308BD2C02030008B5024B1B689B6866
:10443C00019308BD2C02030008B5024B1B68DB6816
:10444C00019308BD2C02030008B5024B1B681B69C5
:10445C00019308BD2C02030008B5024B1B681B6BB3
:10446C00019308BD2C02030008B5024B1B685B6866
:10447C00019308BD1802030008B5024B1B685B6969
:10448C00019308BD1802030008B5024B1B685B6C56
:10449C00019308BD4802030008B5024B1B689B6CD6
:1044AC00019308BD4802030008B5024B1B685B6909
:1044BC00019308BD6402030008B5024B1B681B681E
:1044CC00019308BD3C02030008B5024B1B68DB6876
:1044DC00019308BD3C02030008B5024B1B681B6925
:1044EC00019308BD3C02030008B5024B1B685B69D5
:1044FC00019308BD3C02030008B5024B1B689B6985
:10450C00019308BD3C02030008B5024B1B68DB6934
:10451C00019308BD3C02030008B5024B1B681B6AE3
:10452C00019308BD3C02030008B5024B1B689B6A53
:10453C00019308BD3C02030008B5024B1B681B6AC3
:10454C00019308BD2802030008B5024B1B685B6A87
:10455C00019308BD2802030008B5024B1B689B6A37
:10456C00019308BD2802030008B5024B1B68DB6AE7
:10457C00019308BD2802030008B5024B1B681B6B96
:10458C00019308BD2802030008B5024B1B685B6B46
:10459C00019308BD2802030008B5024B1B681B6C75
:1045AC00019308BD2802030008B5024B1B68DB69A8
:1045BC00019308BD3002030008B5024B1B681B6A4F
:1045CC00019308BD3002030008B5024B1B681B6841
:1045DC00019308BD4C02030008B5024B1B681B6914
:1045EC00019308BD4C02030008B5024B1B685B69C4
:1045FC00019308BD4C02030008B5024B1B689B6974
:10460C00019308BD4C02030008B5024B1B68DB6923
:10461C00019308BD4C02030008B5024B1B681B6AD2
:10462C00019308BD4C02030008B5024B1B689B6B41
:10463C00019308BD6002030008B5024B1B68DB6BDD
:10464C00019308BD6002030008B5024B1B685B6850
:10465C00019308BD2002030008B5024B1B68DB6CFC
:10466C00019308BD2002030008B5024B1B685B6D6B
:10467C00019308BD2002030008B5034B1B68D3F857
:10468C008830019308BD00002002030008B5034BDD
:10469C001B68D3F89430019308BD0000200203007E
:1046AC0008B5024B1B685B68019308BD4002030010
:1046BC0008B5024B1B689B68019308BD40020300C0
:1046CC0008B5024B1B68DB68019308BD4002030070
:1046DC0008B5024B1B681B69019308BD400203001F
:1046EC0008B5024B1B685B69019308BD40020300CF
:1046FC0008B5024B1B689B69019308BD400203007F
:10470C0008B5024B1B68DB69019308BD400203002E
:10471C0008B5024B1B681B6A019308BD40020300DD
:10472C0008B5024B1B681B6B019308BD40020300CC
:10473C0008B5024B1B685B6B019308BD400203007C
:10474C0008B5024B1B681B68019308BD44020300AB
:10475C0008B5024B1B685B68019308BD440203005B
:10476C0008B5024B1B685B69019308BD440203004A
:10477C0008B5024B1B681B6A019308BD4402030079
:10478C0008B5024B1B68DB6B019308BD44020300A8
:10479C0008B5024B1B681B68019308BD1C02030083
:1047AC0008B5024B1B685B68019308BD1C02030033
:1047BC0008B5024B1B689B68019308BD1C020300E3
:1047CC0008B5024B1B68DB6A019308BD1C02030091
:1047DC0008B5024B1B681B6B019308BD1C02030040
:1047EC0008B5024B1B685B6C019308BD1C020300EF
:1047FC00002240681146FFF78BBF0022406811462B
:10480C00FFF796BF40680022FFF78ABF406800227E
:10481C0081F00101FFF774BF002340681A46194666
:10482C00FFF766BF002340681A461946FFF758BFCA
:10483C00002240681146FFF74BBF0022406811462A
:10484C00FFF736BF406800220221FFF739BF002373
:10485C0040681A46FFF724BF024B03225A60024AF3
:10486C001A60704744E60320085F0D0010B504463B
:10487C0008462170FFF798FE00236360204610BDA8
:10488C0010B50446006818B1FFF78AFF00232360B7
:10489C0010BD10B50446FFF7F3FF204610BD000015
:1048AC0010B5094B094C022200201A60084B2060FD
:1048BC00A080A071A360FFF7C7FE2046054A0649F9
:1048CC00BDE8104001F01ABA58E603204CE603206C
:1048DC000000FFFF38E603209F480D0010B504468A
:1048EC000068FFF75DFF204610BD10B50446006858
:1048FC0008B1FFF755FF0023C4E90133236010BD55
:10490C0038B504460D4600680131FFF751FF10B170
:10491C00C4E90005012038BD10B50368044623B175
:10492C0043688B4201D3012010BD2046FFF7E8FFFE
:10493C000028F9D0A368002BF5D122681370F2E798
:10494C0037B50D46114601920446FFF7E5FF019A73
:10495C0028B92046FFF7C9FF204603B030BDA2603E
:10496C002946206801F0E6F92268A3680021D15499
:10497C00F2E7002313B5C0E90033044683600373E8
:10498C0041B10846019101F050FA019902462046C6
:10499C00FFF7D6FF204602B010BD884210B5044682
:1049AC0005D00B682BB18A681946FFF7C9FF204662
:1049BC0010BDFFF79AFFFAE710B500230446C0E9D3
:1049CC00003383600373FFF7E8FF204610BD08B582
:1049DC0082683AB921B10878B0FA80F0400900E059
:1049EC00012008BD006809B90078F5E701F0F6F977
:1049FC00F2E710B50446006808B1FFF74DFD2046FC
:104A0C0010BD000010B5064C002320462360FFF7B4
:104A1C003BFD2046034A0449BDE8104001F06EB945
:104A2C005CE6032038E60320FF490D00F8B5064686
:104A3C000D468F180024BD420CD0336815F8011BAD
:104A4C009B6830469847031E01DB1C44F3E7002C9F
:104A5C0008BF1C462046F8BD13B50446084659B19C
:104A6C00019101F0E2F923680199DB6802462046C6
:104A7C0002B0BDE81040184702B010BD03689B6837
:104A8C00184730B58BB000238DF82430012A98BF1D
:104A9C000A2209AC0D46B1FBF2F101FB125303F0F3
:104AAC00FF03092B94BF30333733DBB2AA4204F82F
:104ABC00013DEFD92146FFF7CFFF0BB030BD000011
:104ACC00014B024A1A60704760E60320345F0D0008
:104ADC00024B1A68024B1A60704700BFD0E50320E6
:104AEC0064E6032010B58368044613B10322014623
:104AFC009847204610BD10B50446FFF7F3FF20463B
:104B0C0010BD13B50B460246D0E900016C4684E893
:104B1C00030093E8030082E8030094E8030083E8B1
:104B2C00030002B010BD00000348044A04490023EE
:104B3C00836001F0E3B800BF68E6032038E6032089
:104B4C00034B0D00014B1860704700BFD4E50320E8
:104B5C0008B50B4B43B100F029FC03681B6998475F
:104B6C00002801DDAFF30080064B43B100F09CFC44
:104B7C0003681B699847002801DDAFF3008008BD6E
:104B8C00000000000000000008B5FFF7E1FFFFF790
:104B9C0073FC014B186008BDD4E703200248034A9C
:104BAC000349121A01F0C6B800F4032004F40320E0
:104BBC00C0600D0007B5002300931A466FF0770113
:104BCC00FFF764FD03B05DF804FB000007B54388F4
:104BDC000A2B08D0502B0BD1094B1B684BB103B0DF
:104BEC005DF804EB1847FFF7E5FF03B05DF804FB35
:104BFC00002300931A466FF07701FFF747FDF4E7A7
:104C0C007CE6032038B5124C1248134D0021FFF7F7
:104C1C00E7FD2368AB42114B0CBF012200221A7036
:104C2C0002D0FFF7BBFF2560FFF71EFC044601F026
:104C3C00B1F80B4B13B12046AFF3008000210848AC
:104C4C00FFF79EFDBDE8384006480021FFF714BD74
:104C5C0000F40320514B0D001E1C279A78E603200C
:104C6C0000000000D94B0D0070470020704710B5B4
:104C7C001021044601F047F8204610BD08B5FFF797
:104C8C00F6FF08BD30B500224FF69C74026084809C
:104C9C008D888C800C68858004600A6030BD10B5EE
:104CAC0004460068FFF77CFD204610BD38B5C4688B
:104CBC00F4B12378022B03D104F10C00FFF7EFFFC2
:104CCC00656835B12846FFF70DFF1021284601F025
:104CDC001AF8A56835B12846FFF704FF10212846BD
:104CEC0001F011F820461421BDE8384001F00BB852
:104CFC0038BD10B588B004466846FFF73AFE6946E1
:104D0C0004A8FFF759FE04A8A047044604A8FFF71F
:104D1C00E5FD6846FFF7E2FD204608B010BD1FB563
:104D2C0004466846FFF725FEA3680BB900F0F1FFB7
:104D3C00E36869462046984704466846FFF7CEFD6F
:104D4C00204604B010BD1FB50023CDE9020101922D
:104D5C0010241A4669461846ADF80230ADF80040EA
:104D6C00FFF7F6FC04B010BD73B50E46044656F8BA
:104D7C00043B00930D4601A83146FFF765FA019AF2
:104D8C00009B6260236001A8002301930093FFF74E
:104D9C00F3F93046FFF7F0F92846082100F0B3FF8D
:104DAC00204602B070BD826810B50AB900F0B1FFA0
:104DBC00BDE81040C368184708B5006800F1100141
:104DCC00FFF7F1FF08BD826810B50AB900F0A1FF2A
:104DDC00BDE81040C368184708B5006800F1100121
:104DEC00FFF7F1FF08BD000038B50023044603604F
:104DFC0010200D46FFF747F928B10123C0E9013314
:104E0C00024B0360C5602060204638BD5C5F0D001E
:104E1C0038B5002383608B6804460D462BB1022203
:104E2C009847EB68E360AB68A360204638BD000090
:104E3C00F0B589B004686846FFF724FF4FF0020311
:104E4C00D4E84F2F002A03D1C4E8413F0029F7D101
:104E5C0025D104F10C0569462846FFF713FFBFF373
:104E6C005B8F01236370002004F10803BFF35B8F99
:104E7C0053E8006F43E80002002AF9D1BFF35B8FBF
:104E8C006EB1FFF7E9FB78B129463046FFF78BFF8F
:104E9C003046FFF727FE1021304600F034FF6846FD
:104EAC00FFF7FDFE09B0F0BD314602A8FFF7B0FFD9
:104EBC00E068B4F9105008B100F09AFF0690102089
:104ECC00ADF81C50FFF7DFF80546E8B10027876006
:104EDC001820FFF7D8F8044688B10146876002A86D
:104EEC00FFF70FFE049BA268A360059B049206A922
:104EFC00E268E36004F110000592FFF7C3FE084B73
:104F0C00EB60084B2C60AB6006A8FFF7C8FE02A84C
:104F1C00FFF7E8FD002229460348FFF7A5FBB7E79A
:104F2C00C54D0D005D500D0009550D002DE9F047E4
:104F3C008AB005469DF848900C4617469846FFF7F0
:104F4C000FFC07AE824638BB4FF62E73059005A9B1
:104F5C003046ADF81830FFF795FE1420FFF793F8A4
:104F6C00044648B1022303700123C0E901AA43702F
:104F7C0031460C30FFF786FE2846214640F8044B9C
:104F8C00FFF732FF3046FFF78AFE05A8FFF787FED2
:104F9C0028460AB0BDE8F0870C234FF0000A142015
:104FAC00CDE908AA0793FFF76EF8014628B1C0E9CE
:104FBC0001AA80F800A080F801A004A80391FFF7D3
:104FCC0013FF224B08930820FFF75DF8824628B1A7
:104FDC00039B40F8043B04A9FFF736F900965FFAEF
:104FEC0089F3424639462046CDF824A0FFF7C0FB92
:104FFC00B8B9039B5B7803F0FF0293B94FF69C732F
:10500C0005A903A80592ADF81830FFF711FF05A804
:10501C00FFF745FE05A80999FFF7A6FE06A8FFF7BE
:10502C00ABF8039B059304A906A8FFF70DF9059BA4
:10503C00069A2B606A60002306A806930593FFF777
:10504C009BF804A8FFF798F8A2E700BF21510D00C8
:10505C00022AF8B5054607D0032A18D0012A01D137
:10506C000B6803600020F8BD18200E68FFF70BF8E2
:10507C00044650B13146FFF7CBFE3069B6F91470D7
:10508C0008B100F0B5FE2061A7822C60EAE7046845
:10509C00002CE7D004F11000FFF701FE2046FFF7CB
:1050AC0021FD1821204600F02EFEDBE738B5002349
:1050BC0083608B6804460D462BB102229847EB683F
:1050CC00E360AB68A360204638BD022A70B5044685
:1050DC0007D0032A12D0012A01D10B6803600020EB
:1050EC0070BD14200E68FEF7CEFF054620B1314688
:1050FC00FFF7DCFF337C2B742560F0E70468002C91
:10510C00EDD02046FFF7EEFC1421204600F0FBFD0D
:10511C00E5E70000F0B589B004460D4601A811463C
:10512C00FFF722FEA4B124B21DB1284600F060FEA8
:10513C00054601A803A90395ADF81040FFF778FECA
:10514C0003A8FFF7ACFD02A8FFF716F809B0F0BDF5
:10515C00019D0123D5E84F2F002A03D1C5E8413F1B
:10516C000029F7D1EFD12B73BFF35B8F6B702B1D25
:10517C00BFF35B8F53E8006F43E80042002AF9D17C
:10518C00BFF35B8F002EDED02046FFF765FA074693
:10519C0060B105F10C013046FFF715FE3046FFF704
:1051AC00A1FC1021304600F0AEFDCCE7314603A83F
:1051BC00FFF77CFF2B7B8DF81C301020FEF763FF74
:1051CC000546D0B187601420FEF75DFF044678B128
:1051DC008760014603A8FFF794FC059BA268A360B7
:1051EC00069B0592E268E3609DF81C3006922374DE
:1051FC00064BEB60064B2C60AB6003A8FFF772FC10
:10520C00002229460348FFF72FFAC7E7E54D0D00AA
:10521C00D7500D0009550D00704710B518210446E4
:10522C0000F071FD204610BDF0B5037D062B8DB04E
:10523C000E4600F104074FF0000412D000F10805EF
:10524C0015F8011D0A223046FFF71BFCAF4204443F
:10525C0019D0002CF4D02E213046FFF70FFC04445B
:10526C00EEE72F236A4639460A208DF80040FFF7F7
:10527C001BF9684600F0D9FD33680246DB686946C5
:10528C0030469847044620460DB0F0BD10B5054B8E
:10529C000446112240F8043B002100F073FD204627
:1052AC0010BD00BF785F0D000346074A10B543F8E8
:1052BC00042B01F1100251F8044B43F8044B9142BA
:1052CC00F9D10A781A7010BD785F0D0010B59DF8F1
:1052DC00084044EA032343EA024242EA0161042300
:1052EC004160037510BD13B5CB7800938B784A7869
:1052FC000978FFF7EBFF02B010BD4174704770479F
:10530C0008B50021007CFFF777F940EAE07008BD92
:10531C0008B50121007CFFF76FF940EAE07008BD89
:10532C0008B5007CFFF760F920EAE07008BD08B50D
:10533C00007CFFF751F920EAE07008BD13B5044674
:10534C00007C0191FFF750F90028019901DC607C89
:10535C0020B1207CFFF758F920EAE07002B010BDB4
:10536C00007CFFF759B910B51421044600F0CBFCB2
:10537C00204610BD10B54FF47A7304460846002140
:10538C00C4E90113044B2360012320746374114698
:10539C00FFF71AF9204610BD8C5F0D0010B51422D2
:1053AC000446002100F0EEFC204610BD10B5104C58
:1053BC0088B003A8FFF7F2FF2178BFF35B8F11F0E1
:1053CC00010111D120460191FEF765FE019958B1FA
:1053DC0003AA0848FFF7CEFF2046FEF761FE064AF7
:1053EC000649044800F08AFC024808B010BD00BF12
:1053FC0080E6032084E6032038E603200B530D00DF
:10540C0070474174704708B5007CFFF78DF820EAAF
:10541C00E07008BD08B5007CFFF75EF820EAE0708C
:10542C0008BD08B5007CFFF767F840EAE07008BDDE
:10543C0008B5007CFFF758F840EAE07008BD007C26
:10544C00FFF762B837B5457C04462DB1207C03B01C
:10545C00BDE83040FFF738B8007C0191FFF764F8E5
:10546C0000280199F2DC284603B030BD10B5142198
:10547C00044600F048FC204610BD000010B54FF06B
:10548C00000C0446084611464FF47A72C4E901C276
:10549C00044A22600122207462741A46FFF70CF849
:1054AC00204610BDBC5F0D0013B50E4C2178BFF328
:1054BC005B8F11F0010112D120460191FEF7EBFD3B
:1054CC00019960B1084A094B0948FFF7D7FF2046FC
:1054DC00FEF7E6FD074A0849054800F00FFC0448B2
:1054EC0002B010BD98E603209CE6032020E70320C1
:1054FC00A4E7032038E603200D540D0010B5836893
:10550C0004460BB900F005FCC3689847A3681BB1AF
:10551C00032221462046984720461021BDE8104022
:10552C0000F0F1BB7047F8B5064615460C468F18CF
:10553C00BC4206D0336814F8011B9B683046984770
:10554C00F6E72846F8BD007C0022FEF7F5BF007C8C
:10555C000021FEF7F9BF007C0021FEF7FDBF007CA7
:10556C000021FFF701B8007C0021FFF705B810B54A
:10557C001421044600F0C7FB204610BD10B54FF4B3
:10558C007A73044608460021C4E90113034B2360D7
:10559C0020741146FFF700F8204610BDEC5F0D009B
:1055AC00002240681146FFF793B80022406811466C
:1055BC00FFF7AEB8002240681146FFF7B9B8406853
:1055CC000022FFF7ADB84068002281F00101FFF71F
:1055DC0097B8002340681A461946FFF789B800238C
:1055EC0040681A461946FFF77BB8002240681146FE
:1055FC00FFF75EB8406800220221FFF761B8002374
:10560C0040681A46FFF74CB8024B04225A60024A13
:10561C001A607047B8E7032014600D00002340683F
:10562C001A46FFF73DB8406800220221FFF748B840
:10563C00002240681146FFF73BB800224068114633
:10564C00FFF746B8002340681A461946FFF748B8DA
:10565C00002340681A461946FFF74AB840680022F2
:10566C0081F00101FFF74CB840680022FFF758B8F1
:10567C00002240681146FFF75BB8002240681146D3
:10568C00FFF746B82DE9F043002495B016460D46B9
:10569C000746FFF7FBFD214618220EA8009400F0E8
:1056AC0071FB4023CDE90C3421466B460CAA3046E5
:1056BC00FEF7AAFE0446002846D10246012168687E
:1056CC00FFF706F80221804622466868FFF700F8CB
:1056DC00009E81462146002E36D0002934D17368B5
:1056EC00022B03D00A2B0BD0F669F4E7B8F1000FAC
:1056FC0004D0716938460431FFF7F5FD4146F3E7F4
:10570C00B9F1000F01D14946EEE77469102201A8E6
:10571C0000F038FB06238DF8143001AD04F10803BA
:10572C001834186859682A4603C20833A342154630
:10573C00F7D101A906A807ADFFF7B6FD0FCD3C1DAB
:10574C000FC42B682370DEE70098FEF755FE384631
:10575C0015B0BDE8F0830000024B034A1A6000222A
:10576C005A607047C0E7032048600D0000F1100339
:10577C00012213F8101C0129184608D153F8041CF7
:10578C0002EB4102013A03F11003F2D170470229F6
:10579C0004BF53F8041C5218F4E7704700207047FC
:1057AC0010B51021044600F0AEFA204610BD08B525
:1057BC00FFF7F6FF08BD10B5C4687CB1206808B1CE
:1057CC00FEF767FC237A1BB1606808B1FEF761FC39
:1057DC0020460C21BDE8104000F095BA10BD10B564
:1057EC00036804469B689847A368013BA3602BB9E8
:1057FC0023682046DB68BDE81040184710BD38B55B
:10580C000B6803604D6843689D4204460CD015B18B
:10581C006B6801336B60606828B14368013B43607F
:10582C000BB9FFF7DCFF6560204638BD0B4611460F
:10583C00002210B5C0E90022044683600BB9204653
:10584C0010BDFFF7DCFFFAE72DE9F04786B00746FD
:10585C00884602A800210024994610239246029300
:10586C00FEF7E2FECDE9004423464246394602A843
:10587C00FEF7E2FE061E1EDD1049300100F047FA6D
:10588C00054690B1214602A8FEF7CEFECDE9006494
:10589C002B464246394602A8FEF7CEFEA04207DD53
:1058AC00CAF800500120C9F8006006B0BDE8F087C6
:1058BC002846FEF7EEFB2046F7E700BF90600D0090
:1058CC002DE9F84F436886680B4488460E4407461A
:1058DC001C4619464FF00D094FF0090AB44263D02B
:1058EC00254615F8012B5C2A2BD1A14207D0A4EB3D
:1058FC00010B18465A4600F02BFA03465B44B5429E
:10590C0039D06278752A2AD1A21CB21A032A32DD48
:10591C00A01D04F1050E4FF0000CAE4553D015F848
:10592C00011FA1F130025FFA82FBBBF1090F05D90F
:10593C00A1F16102052A07D8A1F1570242EA0C1C19
:10594C00EBE728460446C9E7A1F14102052A12D823
:10595C00A1F13702F2E703F801CB0146F2E76E2A18
:10596C001CD00ED8622A13D007D82F2A11D05C2A4B
:10597C000FD0222A0DD0002023E0662AFBD10C2266
:10598C0007E0722A0DD0742AF5D183F800A001E04B
:10599C0008221A70A11C01330846D3E74FF00A0203
:1059AC00F7E783F80090F5E7A14206D0641A184691
:1059BC00224600F0CDF903462344A3EB0803BB6059
:1059CC000120BDE8F88FBCF17F0FC4D92146B9E79F
:1059DC00F8B50446154600EB01160027B44210D06A
:1059EC002378032B08D129462046FFF769FF48B1DD
:1059FC00A368EF541034F1E7002BFBD1A268AB5431
:105A0C00F8E70120F8BD000038B50023C0E90033E9
:105A1C0004460E48C4E90203A9B10B78032B06D047
:105A2C008BB9136858684B68C35C6E2B07D013682E
:105A3C004D6858688B6828445B1BA060E360114676
:105A4C002046FFF7DCFE204638BD00BFEE5E0D00A1
:105A5C0038B500250B46C0E90055C0E90255C0E930
:105A6C000455044611464BB11A78012A06D103F1AC
:105A7C001002DB6882604361FFF7C1FE204638BD2F
:105A8C0010B54369044663B18068E060013B103097
:105A9C00A0602061636113B1FFF768FEA060012074
:105AAC0000E0184610BD000038B500230446036022
:105ABC0010200D46FEF7E7FA28B10123C0E90133A7
:105ACC00024B0360C5602060204638BD7C600D0031
:105ADC00F0B5044687B00E460C202749154600F059
:105AEC0014F9014618B10023C0E90033037203A86E
:105AFC000291FFF7D9FF029A42B9C4E90022A260D1
:105B0C0003A8FEF739FB204607B0F0BD0023019334
:105B1C00294601AB3046FFF797FE18B9C4E90000DF
:105B2C00A060EDE71449029F681C00F0F0F8029B9E
:105B3C00786058680028F1D02A46314600F0FAF80F
:105B4C00029B0199186801221A725A68FFF740FFEC
:105B5C000028E3D0029B19680493039B059313B1AF
:105B6C005A6801325A6004AA2046FFF75FFE05A866
:105B7C00FEF702FBC4E700BF90600D00232813B5AD
:105B8C0002D9002002B010BDA0F10B03022B1AD8D1
:105B9C00174C2178BFF35B8F11F001010BD120461C
:105BAC000191FEF778FA019928B11248FEF75EFED2
:105BBC002046FEF775FA0F4B1878FEF7FDFC00280F
:105BCC00DFD10120DEE7012809D800F06FF80021B1
:105BDC00007CFEF7D9FC80F00100C0B2D2E7093896
:105BEC000128EED8FFF760FC007CFEF795FCF2E78D
:105BFC00C8E70320CCE70320232838B504460D461C
:105C0C000AD8FF2908D0FFF7B9FF28B1294620464A
:105C1C00BDE83840FEF708BC38BD38B504460D4623
:105C2C00FEF70AFCFF2810D0062804D84D2323FACF
:105C3C0000F0C30709D42046FFF7A0FF28B129467E
:105C4C002046BDE83840FEF7FFBB38BD0D2810B527
:105C5C0004469CBF0E34A4B22046FFF78FFF50B110
:105C6C0003212046FEF7D8FB032804D12046BDE8CB
:105C7C001040FEF7F1BB002010BD000038B500232A
:105C8C002025438014230446038085600561064962
:105C9C00284600F03CF804496060284600F037F8CC
:105CAC00E060204638BD00BF90600D0030B50F4D50
:105CBC002978BFF35B8F11F0010487B013D128460C
:105CCC00FEF7E9F978B101A8FFF7D8FF01AA214640
:105CDC000748FFF753FC2846FEF7E2F9054A064948
:105CEC00034800F00BF8024807B030BDD8E703209A
:105CFC00DCE7032038E6032031550D000B46014646
:105D0C00184600F009B8FEF7C2B9FEF7BCB9FEF7A9
:105D1C00BCB908B5FEF754FD10B5054C13462CB1B3
:105D2C000A4601460220AFF3008010BD2046FCE776
:105D3C00000000000A44914200F1FF3300D170478B
:105D4C0010B511F8014B03F8014F9142F9D110BD78
:105D5C00884210B501EB020402D98442234607D8CD
:105D6C00431EA14208D011F8012B03F8012FF8E7CC
:105D7C00024401468A4200D110BD13F8014D02F8CD
:105D8C00014DF7E702440346934200D1704703F8F4
:105D9C00011BF9E738B50D4B1D68AB6B04467BB99D
:105DAC001820FEF7F5FC0A4A0A4BA863C0E9002349
:105DBC00094B83600B23838101220023C0E9042358
:105DCC00AB6B00221C615A6138BD00BFD4E50320C7
:105DDC000E33CDAB34126DE6ECDE050010F8012B62
:105DEC0011F8013B012A28BF9A42F7D0D01A70470C
:105DFC00024B0146186800F003B800BFD4E503203D
:105E0C0037B5044608460D4600F00FF8421C114603
:105E1C0020460192FEF7DCFC044618B1019A294693
:105E2C00FFF788FF204603B030BD034613F8012B63
:105E3C00002AFBD1181A0138704700001D400D00D4
:105E4C0059400D0081400D0085400D000000000000
:105E5C004163747561746F722076616C7565004175
:105E6C0063747561746F722074657374004163742C
:105E7C007561746F72006F6E004163747561746F3D
:105E8C007220616374697661746564006F66660084
:105E9C004163747561746F722064656163746976B3
:105EAC0061746564004661696C75726520696E2069
:105EBC00636F6D6D616E6400616363657373006124
:105ECC006C6C6F77004C6F636B5F686F6F6B00640B
:105EDC00656E7900636F6D6D616E64206572726FB3
:105EEC00723A00636F6D6D616E64206572726F72D1
:105EFC000000000000000000000000005B480D00E6
:105F0C0051480D0047480D003D480D0031480D002B
:105F1C0025480D0019480D0011480D0007480D00CB
:105F2C00FD470D0091560D006170700025592D250F
:105F3C006D2D25645425483A254D3A2553257A0074
:105F4C0061736374696D650000000000000000005F
:105F5C00754C0D007B4C0D00B94C0D00894C0D009F
:105F6C00774C0D00000000000000000035520D00C1
:105F7C0025520D0027520D0000000000000000000B
:105F8C000B530D0073530D0049530D00394A0D008E
:105F9C003B530D000D530D001D530D006D530D00A3
:105FAC002D530D0007530D000000000000000000F1
:105FBC000D540D0079540D0051540D00394A0D004B
:105FCC0021540D003D540D002F540D004B540D0069
:105FDC000F540D0013540D000000000000000000D1
:105FEC0031550D007B550D0053550D0033550D00EB
:105FFC005B550D0063550D006B550D0073550D0071
:10600C0000000000000000000B560D0001560D00B2
:10601C00F7550D00AD550D00EB550D00DF550D007E
:10602C00D3550D00CB550D00C1550D00B7550D00C6
:10603C0091560D00000000000000000029560D00D4
:10604C0033560D003D560D0047560D0051560D00B0
:10605C005D560D0069560D0075560D007D560D00F0
:10606C0087560D0091560D00000000000000000046
:10607C00A7570D00AD570D00C3570D00BB570D00B2
:10608C00A9570D0000000000F9430D0065480D00F4
:10609C00AD480D00114A0D00CD4A0D00DD4A0D0032
:1060AC00354B0D0015560D0065570D000000000016
:0460BC0000000000E0
:0460C00000000000DC
:1060C400060000004C5F0D00D8E50320000000002E
:1060D40000000000000000000000000000000000BC
:1060E40000000000000000000000000000000000AC
:1060F400000000000000000000000000000000009C
:10610400000000000000000000000000000000008B
:10611400000000000000000000000000000000007B
:0C6124000000000000000000000000006F
:10613000FFFFFFFF00000102030405060708090A2C
:106140000B0C0D0E0F101112131415161718191A27
:086150001B1C1D1E1F2028006E
:04615800785634122F
:04000003D000401CCD
:00000001FF
