:02000002D0002C
:1040000000400D0030670D00000006000C000501A7
:084010000401D70700000000C5
:04401800CC620D0069
:10401C0009480A49884208B505D0094A824202D0AB
:10402C00121A02F045F80748074A0021121A02F04A
:10403C0067F8014808BD00BFB0E6032094660D0088
:10404C0024E7032024E70320F0E7032070B5074E94
:10405C00074C00F077FFA41BA4080025A54200D153
:10406C0070BD56F8043B98470135F7E76C660D00B8
:10407C0090660D0000F060B808B500F0DFF8BDE800
:10408C00084000F021BF00F093BC00F091BC00F0A0
:10409C0097BC00F095BC0078B0FA80F040097047EE
:1040AC00012303707047036808681847012A03D07E
:1040BC00022A03D0002070470160FBE70B68036005
:1040CC00F8E7000038B51249044600F00EFE68B15E
:1040DC001048B42100F0F5FC40F6B83000F0A0FE1A
:1040EC0000210C4800F0EDFC002038BD0A492046A8
:1040FC0000F0FBFD0028F3D10849204600F0F5FD47
:10410C0008B1B421EDE7204600F001FE0146E8E7D6
:10411C00E0620D0030E70320E9620D00E7620D005C
:10412C0013B51A438DF800203C230022044601F0FD
:10413C009DF8204602B010BD10B52E4C86B02088DC
:10414C00012101F013FF20882B4C002101F01FFFEF
:10415C002088012101F00AFF2088002101F017FFBF
:10416C00264B0221188801F001FF25492548002320
:10417C00022200F0F5FB002323492448022200F020
:10418C00EFFB234A2349244800F07DFF234B029385
:10419C00234B05931020234B0493FFF774FF044625
:1041AC0078B100238360049B33B1022202A99847A3
:1041BC00059BE360049BA3601B4A1C48214600F04E
:1041CC0062FF049B1BB102A9032208469847184AB8
:1041DC001849114800F057FF0023B422CDE90032F2
:1041EC0002214FF416634FF40872134800F0ACFC34
:1041FC0006B010BDB0E60320B4E60320B8E60320F9
:10420C002CE70320EE620D0040E70320FD620D0059
:10421C000A630D00A1420D003F500D0045430D00F7
:10422C00B3400D00B9400D001E630D006B500D0026
:10423C0018630D00D1400D0030E7032008B5064B84
:10424C00188801F0BDFE054B1860054B188801F06D
:10425C00B7FE044B186008BDB0E603202CE7032022
:10426C00B8E6032040E7032038B5046805467CB166
:10427C006368013B63605BB9236820469B68984781
:10428C00A368013BA3601BB923682046DB689847F1
:10429C00284638BD73B51D491D4D064600F025FD59
:1042AC00044688B11B4B0121188801F070FE2A7856
:1042BC0019494FF000036846FFF732FF01A8FFF7DA
:1042CC00D3FF012002B070BD1449304600F00DFD43
:1042DC0078B1104B2146188801F059FE2A78104904
:1042EC0023466846FFF71CFF01A8FFF7BDFF2046D9
:1042FC00E8E703462A780B496846FFF711FF01A847
:10430C00FFF7B2FF4FF0FF30DCE700BF25630D0075
:10431C0028E70320B0E6032028630D003B630D0063
:10432C003F630D0054630D000B68036013B15A68B2
:10433C0001325A60704700002DE9F04399B0894D65
:10434C00039001F030FF0399024604A801F07AFDB6
:10435C00069C049B0E9305A90FA8FFF7E5FF0EAA78
:10436C00214612A801F02EFD0FA8FFF77DFF12A821
:10437C0001F040FD002800F0F280169C129B0E9379
:10438C0013A90FA8FFF7D0FF0EAA214607A801F02A
:10439C0007FC0FA8FFF768FF099C079B0A9308A965
:1043AC000BA8FFF7C1FF0AAA21460EA801F0E6FCF4
:1043BC000BA8FFF759FF10990AA800F068FC0FA88A
:1043CC00FFF752FF08A8FFF74FFF159C129B0793AE
:1043DC0013A908A8FFF7A8FF214607AA0EA801F009
:1043EC00CDFC08A8FFF740FF1098294601F0B4FE59
:1043FC0004460FA8FFF738FF002C40F0AC805A4958
:10440C005A4D0AA800F071FC002864D02B78584A49
:10441C0058498DF800300EA83C2300F027FF0FA858
:10442C00FFF722FFDFF87C812A785349534F23464C
:10443C000EA8FFF775FE0FA8FFF716FFB8F80000DF
:10444C00012101F0A4FD4E490EA800F020FC0EA89D
:10445C00FFF738FE0EA800F0CFFB42F2107000F010
:10446C00DFFC388801F0ACFD464B31281860C146A2
:10447C001E4626DDB8F80000214601F088FD4249B1
:10448C000EA800F004FC0EA8FFF71CFE0EA800F00E
:10449C00B3FB2A783D494FF000030EA8FFF740FE0E
:1044AC000FA8FFF7E1FE01240AA800F0A5FB13A852
:1044BC00FFF7DAFE05A8FFF7D7FE204619B0BDE8D6
:1044CC00F083388801F07CFD32283060F9DDB9F8D2
:1044DC0000000021D1E72E490AA800F006FC2B7839
:1044EC008DF800303C23F8B12A4A22492A4D0EA8F7
:1044FC0000F0BCFE0FA8FFF7B7FE23490EA800F092
:10450C00C6FB0EA8FFF7DEFD0EA800F075FB288891
:10451C00012101F03CFD40F6B83000F081FC288808
:10452C00214601F034FDBFE71C4A12490EA800F0E9
:10453C009DFE0FA8FFF798FE2B780A9A18498DF864
:10454C0000300EA83C2300F091FE0FA8FFF78CFE64
:10455C004FF0FF34A8E70AA800F04EFB07E76FF016
:10456C000104A4E767630D0075630D0028E70320C1
:10457C006E630D007B630D0085630D00B8E60320B0
:10458C00E7620D0040E70320E9620D0092630D0025
:10459C00A8630D00A1630D00B4E60320AD630D000C
:1045AC00C3630D00B0E6032010B5074B074C012286
:1045BC001A70204600F0AEFA2046054A0549BDE8BF
:1045CC00104001F055BD00BF28E7032030E7032061
:1045DC0024E70320494B0D0008B5024B1B689B6870
:1045EC00019308BD6802030008B5024B1B68DB6829
:1045FC00019308BD6802030008B5024B1B685B6899
:10460C00019308BD2C02030008B5024B1B689B6884
:10461C00019308BD2C02030008B5024B1B68DB6834
:10462C00019308BD2C02030008B5024B1B681B69E3
:10463C00019308BD2C02030008B5024B1B681B6BD1
:10464C00019308BD2C02030008B5024B1B685B6884
:10465C00019308BD1802030008B5024B1B685B6987
:10466C00019308BD1802030008B5024B1B685B6C74
:10467C00019308BD4802030008B5024B1B689B6CF4
:10468C00019308BD4802030008B5024B1B685B6927
:10469C00019308BD6402030008B5024B1B681B683C
:1046AC00019308BD3C02030008B5024B1B68DB6894
:1046BC00019308BD3C02030008B5024B1B681B6943
:1046CC00019308BD3C02030008B5024B1B685B69F3
:1046DC00019308BD3C02030008B5024B1B689B69A3
:1046EC00019308BD3C02030008B5024B1B68DB6953
:1046FC00019308BD3C02030008B5024B1B681B6A02
:10470C00019308BD3C02030008B5024B1B689B6A71
:10471C00019308BD3C02030008B5024B1B681B6AE1
:10472C00019308BD2802030008B5024B1B685B6AA5
:10473C00019308BD2802030008B5024B1B689B6A55
:10474C00019308BD2802030008B5024B1B68DB6A05
:10475C00019308BD2802030008B5024B1B681B6BB4
:10476C00019308BD2802030008B5024B1B685B6B64
:10477C00019308BD2802030008B5024B1B681B6C93
:10478C00019308BD2802030008B5024B1B68DB69C6
:10479C00019308BD3002030008B5024B1B681B6A6D
:1047AC00019308BD3002030008B5024B1B681B695E
:1047BC00019308BD2402030008B5024B1B685B691A
:1047CC00019308BD2402030008B5024B1B689B69CA
:1047DC00019308BD2402030008B5024B1B681B683B
:1047EC00019308BD4C02030008B5024B1B681B6902
:1047FC00019308BD4C02030008B5024B1B685B69B2
:10480C00019308BD4C02030008B5024B1B689B6961
:10481C00019308BD4C02030008B5024B1B68DB6911
:10482C00019308BD4C02030008B5024B1B681B6AC0
:10483C00019308BD4C02030008B5024B1B689B6B2F
:10484C00019308BD6002030008B5024B1B68DB6BCB
:10485C00019308BD6002030008B5024B1B685B683E
:10486C00019308BD2002030008B5024B1B685B696D
:10487C00019308BD2002030008B5024B1B68DB6CDA
:10488C00019308BD2002030008B5024B1B685B6D49
:10489C00019308BD2002030008B5034B1B68D3F835
:1048AC008830019308BD00002002030008B5034BBB
:1048BC001B68D3F89430019308BD0000200203005C
:1048CC0008B5024B1B685B68019308BD40020300EE
:1048DC0008B5024B1B689B68019308BD400203009E
:1048EC0008B5024B1B68DB68019308BD400203004E
:1048FC0008B5024B1B681B69019308BD40020300FD
:10490C0008B5024B1B685B69019308BD40020300AC
:10491C0008B5024B1B689B69019308BD400203005C
:10492C0008B5024B1B68DB69019308BD400203000C
:10493C0008B5024B1B681B6A019308BD40020300BB
:10494C0008B5024B1B681B6B019308BD40020300AA
:10495C0008B5024B1B685B6B019308BD400203005A
:10496C0008B5024B1B681B68019308BD4402030089
:10497C0008B5024B1B685B68019308BD4402030039
:10498C0008B5024B1B685B69019308BD4402030028
:10499C0008B5024B1B681B6A019308BD4402030057
:1049AC0008B5024B1B68DB6B019308BD4402030086
:1049BC0008B5024B1B681B68019308BD1C02030061
:1049CC0008B5024B1B685B68019308BD1C02030011
:1049DC0008B5024B1B689B68019308BD1C020300C1
:1049EC0008B5024B1B68DB6A019308BD1C0203006F
:1049FC0008B5024B1B681B6B019308BD1C0203001E
:104A0C0008B5024B1B685B6C019308BD1C020300CC
:104A1C00002240681146FFF78BBF00224068114608
:104A2C00FFF796BF40680022FFF78ABF406800225C
:104A3C0081F00101FFF774BF002340681A46194644
:104A4C00FFF766BF002340681A461946FFF758BFA8
:104A5C00002240681146FFF74BBF00224068114608
:104A6C00FFF736BF406800220221FFF739BF002351
:104A7C0040681A46FFF724BF024B03225A60024AD1
:104A8C001A60704744E70320E0630D0010B504463C
:104A9C0008462170FFF778FE00236360204610BDA6
:104AAC00B0F90020531C0BD0438880888B4203D86C
:104ABC008842034628BF0B46194690B2FFF784BEC6
:104ACC00704713B504460846B4F90610B4F908202B
:104ADC00884210DB9042A8BF1046A38800936388DD
:104AEC0000F092F9E368184481B2204602B0BDE8A8
:104AFC001040FFF7D5BF0846EFE70000044A4FF41B
:104B0C001663C0E90023B42303810023C3607047FC
:104B1C00FFFF200208B5FFF7F1FF08BD10B50446F2
:104B2C00B0F90000431C07D080B2FFF745FE2046C9
:104B3C00FFF7E4FF012010BD0020FCE710B5044690
:104B4C00FFF7ECFF204610BD2DE9F0410D46044661
:104B5C000221284690461F46FFF74EFD022803D03F
:104B6C0000263046BDE8F081284601F0C1F9064622
:104B7C000028F5D0B4F90030013302D02046FFF7FD
:104B8C00CDFFBDF91830E380BDF91C302580A4F8A9
:104B9C000280A78023812846FFF706FEE1E710B5C7
:104BAC000446006818B1FFF70BFF0023236010BD0B
:104BBC0010B50446FFF7F3FF204610BD10B5094BA6
:104BCC00094C022200201A60084B2060A080A071C2
:104BDC00A360FFF741FE2046054A0649BDE8104098
:104BEC0001F046BA58E703204CE703200000FFFF12
:104BFC0024E70320BD4B0D0010B504460068FFF7F9
:104C0C00DFFE204610BD10B50446006808B1FFF762
:104C1C00D7FE0023C4E90133236010BD38B5044628
:104C2C000D4600680131FFF7D3FE10B1C4E9000551
:104C3C00012038BD10B50368044623B143688B428C
:104C4C0001D3012010BD2046FFF7E8FF0028F9D062
:104C5C00A368002BF5D122681370F2E737B50D4627
:104C6C00114601920446FFF7E5FF019A28B9204648
:104C7C00FFF7C9FF204603B030BDA260294620686B
:104C8C0001F016FA2268A3680021D154F2E7002340
:104C9C0013B5C0E9003304468360037341B1084681
:104CAC00019101F080FA019902462046FFF7D6FFE8
:104CBC00204602B010BD884210B5044605D00B68E2
:104CCC002BB18A681946FFF7C9FF204610BDFFF7C4
:104CDC009AFFFAE710B500230446C0E9003383605D
:104CEC000373FFF7E8FF204610BD08B582683AB998
:104CFC0021B10878B0FA80F0400900E0012008BD2D
:104D0C00006809B90078F5E701F026FAF2E70068C7
:104D1C0008B101F0BBB9704710B50446006808B182
:104D2C00FFF7AAFC204610BD10B5064C0023204608
:104D3C002360FFF799FC2046034A0449BDE8104064
:104D4C0001F096B95CE7032024E70320254D0D0004
:104D5C00F8B506460D468F180024BD420CD03368BA
:104D6C0015F8011B9B6830469847031E01DB1C4459
:104D7C00F3E7002C08BF1C462046F8BD13B50446CB
:104D8C00084659B1019101F00EFA23680199DB68CC
:104D9C000246204602B0BDE81040184702B010BDD4
:104DAC0003689B68184730B58BB000238DF824300E
:104DBC00012A98BF0A2209AC0D46B1FBF2F101FBA6
:104DCC00125303F0FF03092B94BF30333733DBB29C
:104DDC00AA4204F8013DEFD92146FFF7CFFF0BB0F3
:104DEC0030BD0000014B024A1A60704760E7032097
:104DFC000C640D00024B1A68024B1A60704700BF1E
:104E0C00BCE6032064E703208A4210B507D0029C5D
:104E1C00401AE41A6043521A90FBF2F0184410BD89
:104E2C000021FFF721BD10B58368044613B103229E
:104E3C0001469847204610BD10B50446FFF7F3FF16
:104E4C00204610BD13B50B460246D0E900016C4656
:104E5C0084E8030093E8030082E8030094E803006D
:104E6C0083E8030002B010BD0348044A0449002340
:104E7C00836001F0FDB800BF68E7032024E703203E
:104E8C00454E0D00014B1860704700BFC0E6032073
:104E9C0008B50B4B43B100F029FC03681B6998471C
:104EAC00002801DDAFF30080064B43B100F09CFC01
:104EBC0003681B699847002801DDAFF3008008BD2B
:104ECC00000000000000000008B5FFF7E1FFFFF74D
:104EDC00C3FB014B186008BDD4E703200248034A0A
:104EEC000349121A01F0E4B800F4032004F403207F
:104EFC0090660D0007B5002300931A466FF07701FA
:104F0C00FFF7D4FC03B05DF804FB000007B5438841
:104F1C000A2B08D0502B0BD1094B1B684BB103B09B
:104F2C005DF804EB1847FFF7E5FF03B05DF804FBF1
:104F3C00002300931A466FF07701FFF7B7FCF4E7F4
:104F4C007CE7032038B5124C1248134D0021FFF7B3
:104F5C0057FD2368AB42114B0CBF012200221A7083
:104F6C0002D0FFF7BBFF2560FFF76EFB044601F094
:104F7C00CFF80B4B13B12046AFF30080002108484B
:104F8C00FFF70EFDBDE8384006480021FFF784BC52
:104F9C0000F40320914E0D001E1C279A78E7032085
:104FAC0000000000194F0D0070470020704710B52D
:104FBC001021044601F061F8204610BD08B5FFF73A
:104FCC00F6FF08BD30B500224FF69C740260848059
:104FDC008D888C800C68858004600A6030BD10B5AB
:104FEC0004460068FFF7ECFC204610BD38B5C468D9
:104FFC00F4B12378022B03D104F10C00FFF7EFFF7F
:10500C00656835B12846FFF70EFF1021284601F0E0
:10501C0034F8A56835B12846FFF705FF102128465E
:10502C0001F02BF820461421BDE8384001F025B8DA
:10503C0038BD10B588B004466846FFF728FE6946AF
:10504C0004A8FFF747FE04A8A047044604A8FFF7EE
:10505C00D3FD6846FFF7D0FD204608B010BD1FB544
:10506C0004466846FFF713FEA3680BB901F00BF872
:10507C00E36869462046984704466846FFF7BCFD3E
:10508C00204604B010BD1FB50023CDE902010192EA
:10509C0010241A4669461846ADF80230ADF80040A7
:1050AC00FFF766FC04B010BD73B50E46044656F807
:1050BC00043B00930D4601A83146FFF735F9019AE0
:1050CC00009B6260236001A8002301930093FFF70B
:1050DC00CBF83046FFF7C8F82846082100F0CDFF82
:1050EC00204602B070BD826810B50AB900F0CBFF43
:1050FC00BDE81040C368184708B5006800F11001FE
:10510C00FFF7F1FF08BD826810B50AB900F0BBFFCC
:10511C00BDE81040C368184708B5006800F11001DD
:10512C00FFF7F1FF08BD000038B50023044603600B
:10513C0010200D46FEF7A7FF28B10123C0E901336B
:10514C00024B0360C5602060204638BD34640D00FE
:10515C0038B5002383608B6804460D462BB10222C0
:10516C009847EB68E360AB68A360204638BD00004D
:10517C00F0B589B004686846FFF724FF4FF00203CE
:10518C00D4E84F2F002A03D1C4E8413F0029F7D1BE
:10519C0025D104F10C0569462846FFF713FFBFF330
:1051AC005B8F01236370002004F10803BFF35B8F56
:1051BC0053E8006F43E80002002AF9D1BFF35B8F7C
:1051CC006EB1FFF759FB78B129463046FFF78BFFDC
:1051DC003046FFF728FE1021304600F04EFF68469F
:1051EC00FFF7FDFE09B0F0BD314602A8FFF7B0FF96
:1051FC00E068B4F9105008B100F0B8FF0690102028
:10520C00ADF81C50FEF73FFF0546E8B1002787605C
:10521C001820FEF738FF044688B10146876002A8C3
:10522C00FFF710FE049BA268A360059B049206A9DD
:10523C00E268E36004F110000592FFF7C3FE084B2F
:10524C00EB60084B2C60AB6006A8FFF7C8FE02A809
:10525C00FFF7E9FD002229460348FFF715FBB7E7E6
:10526C0005510D009D530D007D580D002DE9F047A3
:10527C008AB005469DF848900C4617469846FFF7AD
:10528C007FFB07AE824638BB4FF62E73059005A9FF
:10529C003046ADF81830FFF795FE1420FEF7F3FEFC
:1052AC00044648B1022303700123C0E901AA4370EC
:1052BC0031460C30FFF786FE2846214640F8044B59
:1052CC00FFF732FF3046FFF78AFE05A8FFF787FE8F
:1052DC0028460AB0BDE8F0870C234FF0000A1420D2
:1052EC00CDE908AA0793FEF7CEFE014628B1C0E926
:1052FC0001AA80F800A080F801A004A80391FFF790
:10530C0013FF224B08930820FEF7BDFE824628B1FE
:10531C00039B40F8043B04A9FFF706F800965FFADC
:10532C0089F3424639462046CDF824A0FFF730FBDE
:10533C00B8B9039B5B7803F0FF0293B94FF69C73EB
:10534C0005A903A80592ADF81830FFF711FF05A8C1
:10535C00FFF745FE05A80999FFF7A6FE06A8FEF77C
:10536C0083FF039B059304A906A8FEF7DDFF059BAD
:10537C00069A2B606A60002306A806930593FEF735
:10538C0073FF04A8FEF770FFA2E700BF61540D0085
:10539C00022AF8B5054607D0032A18D0012A01D1F4
:1053AC000B6803600020F8BD18200E68FEF76BFE3A
:1053BC00044650B13146FFF7CBFE3069B6F9147094
:1053CC0008B100F0D3FE2061A7822C60EAE70468E4
:1053DC00002CE7D004F11000FFF701FE2046FFF788
:1053EC0022FD1821204600F048FEDBE738B50023EB
:1053FC0083608B6804460D462BB102229847EB68FC
:10540C00E360AB68A360204638BD022A70B5044641
:10541C0007D0032A12D0012A01D10B6803600020A7
:10542C0070BD14200E68FEF72EFE054620B13146E5
:10543C00FFF7DCFF337C2B742560F0E70468002C4D
:10544C00EDD02046FFF7EFFC1421204600F015FEAE
:10545C00E5E70000F0B589B004460D4601A81146F9
:10546C00FFF722FEA4B124B21DB1284600F07EFE47
:10547C00054601A803A90395ADF81040FFF778FE87
:10548C0003A8FFF7ACFD02A8FEF7EEFE09B0F0BDD5
:10549C00019D0123D5E84F2F002A03D1C5E8413FD8
:1054AC000029F7D1EFD12B73BFF35B8F6B702B1DE2
:1054BC00BFF35B8F53E8006F43E80042002AF9D139
:1054CC00BFF35B8F002EDED02046FFF7D5F90746E1
:1054DC0060B105F10C013046FFF715FE3046FFF7C1
:1054EC00A2FC1021304600F0C8FDCCE7314603A8E1
:1054FC00FFF77CFF2B7B8DF81C301020FEF7C3FDD3
:10550C000546D0B187601420FEF7BDFD044678B186
:10551C008760014603A8FFF795FC059BA268A36072
:10552C00069B0592E268E3609DF81C30069223749A
:10553C00064BEB60064B2C60AB6003A8FFF773FCCB
:10554C00002229460348FFF79FF9C7E725510D00B4
:10555C0017540D007D580D00704710B518210446E6
:10556C0000F08BFD204610BDF0B5037D062B8DB0F1
:10557C000E4600F104074FF0000412D000F10805AC
:10558C0015F8011D0A223046FFF70DFCAF4204440A
:10559C0019D0002CF4D02E213046FFF701FC044426
:1055AC00EEE72F236A4639460A208DF80040FFF7B4
:1055BC006BF8684600F0F7FD33680246DB68694615
:1055CC0030469847044620460DB0F0BD10B5054B4B
:1055DC000446112240F8043B002100F091FD2046C6
:1055EC0010BD00BF50640D000346074A10B543F8C8
:1055FC00042B01F1100251F8044B43F8044B914277
:10560C00F9D10A781A7010BD50640D0010B59DF8D0
:10561C00084044EA032343EA024242EA01610423BC
:10562C004160037510BD13B5CB7800938B784A7825
:10563C000978FFF7EBFF02B010BD4174704770475B
:10564C0008B50021007CFFF7DFF840EAE07008BDE8
:10565C0008B50121007CFFF7D7F840EAE07008BDDF
:10566C0008B5007CFFF7C8F820EAE07008BD08B563
:10567C00007CFFF7B9F820EAE07008BD13B50446CA
:10568C00007C0191FFF7B8F80028019901DC607CDF
:10569C0020B1207CFFF7C0F820EAE07002B010BD0A
:1056AC00007CFFF7C1B810B51421044600F0E5FCEE
:1056BC00204610BD10B54FF47A73044608460021FD
:1056CC00C4E90113044B2360012320746374114655
:1056DC00FFF782F8204610BD64640D0010B514224B
:1056EC000446002100F00CFD204610BD10B5104CF6
:1056FC0088B003A8FFF7F2FF2178BFF35B8F11F09E
:10570C00010111D120460191FEF7C5FC019958B158
:10571C0003AA0848FFF7CEFF2046FEF7C1FC064A55
:10572C000649044800F0A4FC024808B010BD00BFB4
:10573C0080E7032084E7032024E703204B560D0069
:10574C0070474174704708B5007CFEF7DDFF20EA16
:10575C00E07008BD08B5007CFEF7AEFF20EAE070F3
:10576C0008BD08B5007CFEF7B7FF40EAE07008BD45
:10577C0008B5007CFEF7A8FF40EAE07008BD007C8D
:10578C00FEF7B2BF37B5457C04462DB1207C03B083
:10579C00BDE83040FEF788BF007C0191FEF7B4FFF6
:1057AC0000280199F2DC284603B030BD10B5142155
:1057BC00044600F062FC204610BD000010B54FF00E
:1057CC00000C0446084611464FF47A72C4E901C233
:1057DC00044A22600122207462741A46FEF75CFFB0
:1057EC00204610BD94640D00F7B51B4C26684EB9CD
:1057FC008420FEF748FC054618B18422314600F09F
:10580C007FFC2560154D2F684FB98420FEF73BFCBB
:10581C00064618B18422394600F072FC2E60104EF8
:10582C003178BFF35B8F11F0010112D13046019139
:10583C00FEF731FC019960B122682B680948FFF72B
:10584C00BDFF3046FEF72CFC074A0849054800F01E
:10585C000FFC044803B0F0BD9CE70320A0E7032035
:10586C0098E70320A4E7032024E703204D570D00FD
:10587C0010B5836804460BB900F005FCC368984763
:10588C00A3681BB1032221462046984720461021CD
:10589C00BDE8104000F0F1BB7047F8B50646154660
:1058AC000C468F18BC4206D0336814F8011B9B6859
:1058BC0030469847F6E72846F8BD007C0022FEF7F4
:1058CC002BBF007C0021FEF72FBF007C0021FEF7D0
:1058DC0033BF007C0021FEF737BF007C0021FEF7B0
:1058EC003BBF10B51421044600F0C7FB204610BD89
:1058FC0010B54FF47A73044608460021C4E901132D
:10590C00034B236020741146FEF736FF204610BD72
:10591C00C4640D00002240681146FEF7E9BF002266
:10592C0040681146FFF704B8002240681146FFF7A3
:10593C000FB840680022FFF703B84068002281F0DE
:10594C000101FEF7EDBF002340681A461946FEF729
:10595C00DFBF002340681A461946FEF7D1BF00226C
:10596C0040681146FEF7B4BF406800220221FEF7E2
:10597C00B7BF002340681A46FEF7A2BF024B0422B1
:10598C005A60024A1A607047B8E70320EC640D00B5
:10599C00002340681A46FEF793BF4068002202219C
:1059AC00FEF79EBF002240681146FEF791BF002211
:1059BC0040681146FEF79CBF002340681A46194602
:1059CC00FEF79EBF002340681A461946FEF7A0BF9B
:1059DC004068002281F00101FEF7A2BF406800225E
:1059EC00FEF7AEBF002240681146FEF7B1BF0022A1
:1059FC0040681146FEF79CBF2DE9F043002495B09A
:105A0C0016460D460746FFF7E1FD214618220EA863
:105A1C00009400F075FB4023CDE90C3421466B4615
:105A2C000CAA3046FEF7E0FD0446002846D102469B
:105A3C0001216868FEF75CFF0221804622466868F7
:105A4C00FEF756FF009E81462146002E36D00029D7
:105A5C0034D17368022B03D00A2B0BD0F669F4E710
:105A6C00B8F1000F04D0716938460431FFF7DBFD43
:105A7C004146F3E7B9F1000F01D14946EEE77469ED
:105A8C00102201A800F03CFB06238DF8143001AD68
:105A9C0004F108031834186859682A4603C20833FD
:105AAC00A3421546F7D101A906A807ADFFF79CFD47
:105ABC000FCD3C1D0FC42B682370DEE70098FEF75A
:105ACC008BFD384615B0BDE8F0830000024B034A4D
:105ADC001A6000225A607047C0E7032020650D0051
:105AEC0000F11003012213F8101C0129184608D1EB
:105AFC0053F8041C02EB4102013A03F11003F2D1FA
:105B0C007047022904BF53F8041C5218F4E770477D
:105B1C000020704710B51021044600F0AEFA204664
:105B2C0010BD08B5FFF7F6FF08BD10B5C4687CB111
:105B3C00206808B1FEF7ADFA237A1BB1606808B192
:105B4C00FEF7A7FA20460C21BDE8104000F095BAEC
:105B5C0010BD10B5036804469B689847A368013BC9
:105B6C00A3602BB923682046DB68BDE810401847BA
:105B7C0010BD38B50B6803604D6843689D42044600
:105B8C000CD015B16B6801336B60606828B1436849
:105B9C00013B43600BB9FFF7DCFF6560204638BD65
:105BAC000B461146002210B5C0E900220446836062
:105BBC000BB9204610BDFFF7DCFFFAE72DE9F047E3
:105BCC0086B00746884602A8002100249946102377
:105BDC0092460293FEF730FECDE90044234642463E
:105BEC00394602A8FEF730FE061E1EDD10493001B4
:105BFC0000F047FA054690B1214602A8FEF71CFEBC
:105C0C00CDE900642B464246394602A8FEF71CFE3D
:105C1C00A04207DDCAF800500120C9F8006006B0A8
:105C2C00BDE8F0872846FEF734FA2046F7E700BFB8
:105C3C0068650D002DE9F84F436886680B4488466B
:105C4C000E4407461C4619464FF00D094FF0090A41
:105C5C00B44263D0254615F8012B5C2A2BD1A14206
:105C6C0007D0A4EB010B18465A4600F02FFA034656
:105C7C005B44B54239D06278752A2AD1A21CB21A7B
:105C8C00032A32DDA01D04F1050E4FF0000CAE45C9
:105C9C0053D015F8011FA1F130025FFA82FBBBF162
:105CAC00090F05D9A1F16102052A07D8A1F1570204
:105CBC0042EA0C1CEBE728460446C9E7A1F1410275
:105CCC00052A12D8A1F13702F2E703F801CB0146FD
:105CDC00F2E76E2A1CD00ED8622A13D007D82F2ACE
:105CEC0011D05C2A0FD0222A0DD0002023E0662A86
:105CFC00FBD10C2207E0722A0DD0742AF5D183F85F
:105D0C0000A001E008221A70A11C01330846D3E759
:105D1C004FF00A02F7E783F80090F5E7A14206D0AE
:105D2C00641A1846224600F0D1F903462344A3EB2B
:105D3C000803BB600120BDE8F88FBCF17F0FC4D90C
:105D4C002146B9E7F8B50446154600EB01160027C5
:105D5C00B44210D02378032B08D129462046FFF7F4
:105D6C0069FF48B1A368EF541034F1E7002BFBD165
:105D7C00A268AB54F8E70120F8BD000038B5002349
:105D8C00C0E9003304460E48C4E90203A9B10B78FC
:105D9C00032B06D08BB9136858684B68C35C6E2B09
:105DAC0007D013684D6858688B6828445B1BA0604B
:105DBC00E36011462046FFF7DCFE204638BD00BFED
:105DCC00C2630D0038B500250B46C0E90055C0E98B
:105DDC000255C0E90455044611464BB11A78012A04
:105DEC0006D103F11002DB6882604361FFF7C1FE4C
:105DFC00204638BD10B54369044663B18068E06045
:105E0C00013B1030A0602061636113B1FFF768FEA5
:105E1C00A060012000E0184610BD000038B500233A
:105E2C000446036010200D46FEF72DF928B101231E
:105E3C00C0E90133024B0360C5602060204638BDC9
:105E4C0054650D00F0B5044687B00E460C2027496A
:105E5C00154600F014F9014618B10023C0E90033CF
:105E6C00037203A80291FFF7D9FF029A42B9C4E961
:105E7C000022A26003A8FEF7F7F9204607B0F0BD98
:105E8C0000230193294601AB3046FFF797FE18B962
:105E9C00C4E90000A060EDE71449029F681C00F003
:105EAC00F0F8029B786058680028F1D02A463146F9
:105EBC0000F0FEF8029B0199186801221A725A68C8
:105ECC00FFF740FF0028E3D0029B19680493039B63
:105EDC00059313B15A6801325A6004AA2046FFF7A1
:105EEC005FFE05A8FEF7C0F9C4E700BF68650D00AA
:105EFC00232813B502D9002002B010BDA0F10B036A
:105F0C00022B1AD8174C2178BFF35B8F11F00101CB
:105F1C000BD120460191FEF7BEF8019928B1124829
:105F2C00FEF7B4FD2046FEF7BBF80F4B1878FEF7D2
:105F3C0033FC0028DFD10120DEE7012809D800F06E
:105F4C006FF80021007CFEF70FFC80F00100C0B25E
:105F5C00D2E709380128EED8FFF746FC007CFEF7A3
:105F6C00CBFBF2E7C8E70320CCE70320232838B5A6
:105F7C0004460D460AD8FF2908D0FFF7B9FF28B10F
:105F8C0029462046BDE83840FEF73EBB38BD38B543
:105F9C0004460D46FEF740FBFF2810D0062804D817
:105FAC004D2323FA00F0C30709D42046FFF7A0FFC6
:105FBC0028B129462046BDE83840FEF735BB38BD30
:105FCC000D2810B504469CBF0E34A4B22046FFF732
:105FDC008FFF50B103212046FEF70EFB032804D19E
:105FEC002046BDE81040FEF727BB002010BD000086
:105FFC0038B5002320254380142304460380856094
:10600C0005610649284600F03CF8044960602846C2
:10601C0000F037F8E060204638BD00BF68650D0021
:10602C0030B50F4D2978BFF35B8F11F0010487B0A9
:10603C0013D12846FEF72FF878B101A8FFF7D8FF47
:10604C0001AA21460748FFF753FC2846FEF728F81B
:10605C00054A0649034800F00BF8024807B030BD6A
:10606C00D8E70320DCE7032024E70320A5580D0024
:10607C000B460146184600F00DB8FEF708B8FEF7BF
:10608C0002B8FEF702B808B5FEF7AAFC0A220021F6
:10609C0000F00CB910B5054C13462CB10A4601465C
:1060AC000220AFF3008010BD2046FCE7000000008A
:1060BC000A44914200F1FF3300D1704710B511F83A
:1060CC00014B03F8014F9142F9D110BD884210B534
:1060DC0001EB020402D98442234607D8431EA14295
:1060EC0008D011F8012B03F8012FF8E70244014600
:1060FC008A4200D110BD13F8014D02F8014DF7E7AB
:10610C0002440346934200D1704703F8011BF9E7A0
:10611C0038B50D4B1D68AB6B04467BB91820FEF7E8
:10612C0047FC0A4A0A4BA863C0E90023094B836069
:10613C000B23838101220023C0E90423AB6B0022D3
:10614C001C615A6138BD00BFC0E603200E33CDABD5
:10615C0034126DE6ECDE050010F8012B11F8013B52
:10616C00012A28BF9A42F7D0D01A7047024B014639
:10617C00186800F003B800BFC0E6032037B504462A
:10618C0008460D4600F00FF8421C114620460192BD
:10619C00FEF72EFC044618B1019A2946FFF788FF3A
:1061AC00204603B030BD034613F8012B002AFBD167
:1061BC00181A0138704700002DE9F0473A4E864610
:1061CC008C4660461CF8014BA55D15F00805F8D10E
:1061DC002D2C33D19CF800404FF0010800F1020C3B
:1061EC00002B5CD0102B0CD1302C0AD19CF8000069
:1061FC0000F0DF0058284DD19CF8014010230CF121
:10620C00020C08F10047013F0026B7FBF3F93046BA
:10621C0003FB197AA4F13005092D18D82C46A3429A
:10622C0024DD751C07D081451DD301D1A2451ADB95
:10623C0000FB034001261CF8014BEBE72B2C08BF9D
:10624C009CF80040A84608BF00F1020CC8E7A4F176
:10625C004105192D01D8373CE1E7A4F16105192D51
:10626C0004D8573CDBE74FF0FF36E4E7731C06D14C
:10627C002223CEF80030384642B9BDE8F087B8F199
:10628C00000F00D04042002AF7D00EB10CF1FF31C4
:10629C001160F2E73024002BB3D10823B1E7302C86
:1062AC00A4D00A23ADE700BF6A650D0013460A4669
:1062BC00014602480068FFF77FBF00BFC0E603201D
:1062CC001D400D0059400D0081400D0085400D0012
:1062DC0000000000746F67676C6500756E6C6F630F
:1062EC006B004163747561746F722076616C7565B7
:1062FC000053656E736F722076616C756500416337
:10630C00747561746F722074657374007365727642
:10631C006F004D6173746572006F6E00416374752C
:10632C0061746F7220616374697661746564006F67
:10633C006666004163747561746F72206465616395
:10634C0074697661746564004661696C7572652068
:10635C00696E20636F6D6D616E640061636365735C
:10636C0073006D617374657220616C6C6F77004C97
:10637C006F636B5F686F6F6B00646F6F7220697314
:10638C00206F70656E00646F6F7220697320636C90
:10639C006F736564006D61737465722064656E79EA
:1063AC00006D617374657220636F6D6D616E642036
:1063BC006572726F723A006D617374657220636FEF
:1063CC006D6D616E64206572726F7200000000006A
:1063DC00000000007B4A0D00714A0D00674A0D0059
:1063EC005D4A0D00514A0D00454A0D00394A0D0019
:1063FC00314A0D00274A0D001D4A0D00055A0D00AB
:10640C006170700025592D256D2D25645425483A51
:10641C00254D3A2553257A0061736374696D6500C7
:10642C000000000000000000B54F0D00BB4F0D0038
:10643C00F94F0D00C94F0D00B74F0D0000000000C3
:10644C000000000075550D0065550D0067550D00D9
:10645C0000000000000000004B560D00B3560D006C
:10646C0089560D005D4D0D007B560D004D560D00EF
:10647C005D560D00AD560D006D560D0047560D00C6
:10648C0000000000000000004D570D00B9570D0032
:10649C0091570D005D4D0D0061570D007D570D009E
:1064AC006F570D008B570D004F570D0053570D00B4
:1064BC000000000000000000A5580D00EF580D0072
:1064CC00C7580D00A7580D00CF580D00D7580D0018
:1064DC00DF580D00E7580D00000000000000000020
:1064EC007F590D0075590D006B590D0021590D0088
:1064FC005F590D0053590D0047590D003F590D00C0
:10650C0035590D002B590D00055A0D0000000000E7
:10651C00000000009D590D00A7590D00B1590D0048
:10652C00BB590D00C5590D00D1590D00DD590D0099
:10653C00E9590D00F1590D00FB590D00055A0D00DC
:10654C0000000000000000001B5B0D00215B0D0033
:10655C00375B0D002F5B0D001D5B0D000000202034
:10656C0020202020202020282828282820202020F7
:10657C0020202020202020202020202020208810B7
:10658C001010101010101010101010101010040417
:10659C00040404040404040410101010101010411E
:1065AC00414141414101010101010101010101018F
:1065BC000101010101010101011010101010104224
:1065CC00424242424202020202020202020202025F
:1065DC00020202020202020202101010102000003D
:1065EC00000000000000000000000000000000009F
:1065FC00000000000000000000000000000000008F
:10660C00000000000000000000000000000000007E
:10661C00000000000000000000000000000000006E
:10662C00000000000000000000000000000000005E
:10663C00000000000000000000000000000000004E
:10664C00000000000000000000000000000000003E
:10665C00000000000000000000000000000000002E
:10666C00B5450D00854A0D00C94B0D00354D0D008B
:10667C00F14D0D00014E0D00754E0D0089590D00A8
:04668C00D95A0D00CA
:046690000000000006
:1066940006000000050000001300000024640D0043
:1066A400C4E6032000000000000000000000000019
:1066B40000000000000000000000000000000000D6
:1066C40000000000000000000000000000000000C6
:1066D40000000000000000000000000000000000B6
:1066E40000000000000000000000000000000000A6
:1066F4000000000000000000000000000000000096
:046704000000000091
:10670800FFFFFFFF00000102030405060708090A4E
:106718000B0C0D0E0F101112131415161718191A49
:086728001B1C1D1E1F20280090
:046730007856341251
:04000003D000401CCD
:00000001FF
