:02000002D0002C
:1040000000400D0058640D00000006000C00050182
:084010000401D70700000000C5
:044018004C610D00EA
:10401C0009480A49884208B505D0094A824202D0AB
:10402C00121A02F009F80748074A0021121A02F086
:10403C002BF8014808BD00BFACE60320B4630D00AB
:10404C0028E7032028E70320F0E7032070B5074E8C
:10405C00074C00F03FFFA41BA4080025A54200D18B
:10406C0070BD56F8043B98470135F7E780630D00A7
:10407C00A4630D0000F04CB808B500F0BFF8BDE823
:10408C00084000F0E9BE00F05FBC00F05DBC00F041
:10409C0063BC00F061BC0078B0FA80F04009704756
:1040AC00012303707047036808681847012A03D07E
:1040BC00022A03D0002070470160FBE70B68036005
:1040CC00F8E7000070B50E4E0E4D30880E4C0121F5
:1040DC0001F025FF0121288801F021FFC82000F004
:1040EC0067FE0A4B188801F033FF002120603088EE
:1040FC0001F015FF2888002101F011FF206870BD28
:10410C00B8E60320B0E6032030E70320B4E6032032
:10411C0010B586B0294B0293294B05931020294BDF
:10412C000493FFF7B0FF044678B100238360049B2F
:10413C0033B1022202A99847059BE360049BA3605C
:10414C00214A2248214600F066FF049B1BB102A9BC
:10415C000322084698471E4A1E491F4800F05BFF81
:10416C001E491F480023022200F0C6FB0024B42382
:10417C004FF40872CDE9004302214FF4166319483D
:10418C0000F0AEFC184B2146188801F0B7FE174B17
:10419C000121188801F0B2FE154B0121188801F09D
:1041AC00ADFE144B0121188801F0A8FE124B012121
:1041BC00188801F0A3FE06B010BD00BF61420D00CF
:1041CC00B3400D00B9400D0073610D00FB4F0D00A5
:1041DC0060610D00D1400D00CF4F0D0030E7032082
:1041EC0067610D0034E70320B4E60320B8E6032032
:1041FC00B0E60320ACE60320BCE6032070470000C9
:10420C0008B5044B188801F0A3FE6428D4BF002025
:10421C00012008BDB4E6032038B5046805467CB11E
:10422C006368013B63605BB9236820469B689847D1
:10423C00A368013BA3601BB923682046DB68984741
:10424C00284638BD0B68036013B15A6801325A60B6
:10425C00704700002DE9F04198B0A74D039001F094
:10426C0066FF0399024604A801F0B4FD069C049B6A
:10427C000E9305A90FA8FFF7E5FF0EAA214612A879
:10428C0001F068FD0FA8FFF7C7FF12A801F07AFD37
:10429C00002800F02D81169C129B0E9313A90FA8D9
:1042AC00FFF7D0FF0EAA214607A801F041FC0FA88A
:1042BC00FFF7B2FF099C079B0A9308A90BA8FFF70D
:1042CC00C1FF0AAA21460EA801F020FD0BA8FFF79A
:1042DC00A3FF10990AA800F0A6FC0FA8FFF79CFFFB
:1042EC0008A8FFF799FF159C129B079313A908A820
:1042FC00FFF7A8FF214607AA0EA801F007FD08A8A2
:10430C00FFF78AFF1098294601F0EAFE04460FA831
:10431C00FFF782FF002C40F0E7807849784D0AA81F
:10432C0000F0AFFC002800F0A880764F764E38885D
:10433C00012101F0F4FD0121308801F0F0FDC820CD
:10434C0000F036FDFFF75CFF2B788DF80030B0469F
:10435C003C23002854D16D4A6D496E4E0EA800F0D6
:10436C004DFF0FA8FFF758FF2B786B498DF80030E5
:10437C0022463C230EA800F041FF0FA8FFF74CFF8C
:10438C003088012101F0CBFD6448B42100F065FBBD
:10439C0042F2107000F00CFDB046FFF731FF0646FC
:1043AC0018B10A2000F004FDF7E701465B4800F065
:1043BC0054FB2B785A498DF8003032463C230EA81A
:1043CC0000F01CFF0FA8FFF727FFB8F800003146DC
:1043DC0001F0A5FD4C4B3146188801F0A0FD388842
:1043EC00314601F09CFD0AA800F0D2FB13A8FFF7A0
:1043FC0013FF05A8FFF710FF204618B0BDE8F081A9
:10440C0022464849434E0EA800F0F8FE0FA8FFF7CD
:10441C0003FF2B78444A3E498DF800300EA83C230C
:10442C0000F0ECFE0FA8FFF7F7FE05240121308801
:10443C003E4D01F074FD4FF4FA7000F0B9FC308879
:10444C00002101F06CFD0121288801F068FD4FF47A
:10445C00FA7000F0ADFC2888002101F060FD013CF1
:10446C00E4D12146B8F8000001F059FD2146388806
:10447C0001F055FD6FF00104B5E72D490AA800F0D5
:10448C0000FC2B788DF800303C23B0B1294A204930
:10449C00264D0EA800F0B2FE0FA8FFF7BDFE0121BD
:1044AC00288801F03CFD4FF4FA6000F081FC2146B5
:1044BC00288801F034FD022495E71F4A14490EA800
:1044CC0000F09CFE0FA8FFF7A7FE2B780A9A1B4959
:1044DC008DF800300EA83C2300F090FE0FA8FFF7DB
:1044EC009BFE4FF0FF347EE70AA800F051FBCCE6B0
:1044FC006FF001047AE700BF82610D0089610D0045
:10450C002CE70320B8E60320B0E60320D4610D00AD
:10451C0090610D00ACE603209A610D0034E7032096
:10452C00A7610D00B6610D00CB610D00BCE6032048
:10453C00CE610D00CC610D00D3610D00D6610D0074
:10454C0010B5074B074C01221A70204600F0AEFA4A
:10455C002046054A0549BDE8104001F051BD00BF99
:10456C002CE7032034E7032028E70320E14A0D0061
:10457C0008B5024B1B689B68019308BD68020300D9
:10458C0008B5024B1B68DB68019308BD6802030089
:10459C0008B5024B1B685B68019308BD2C02030035
:1045AC0008B5024B1B689B68019308BD2C020300E5
:1045BC0008B5024B1B68DB68019308BD2C02030095
:1045CC0008B5024B1B681B69019308BD2C02030044
:1045DC0008B5024B1B681B6B019308BD2C02030032
:1045EC0008B5024B1B685B68019308BD18020300F9
:1045FC0008B5024B1B685B69019308BD18020300E8
:10460C0008B5024B1B685B6C019308BD48020300A4
:10461C0008B5024B1B689B6C019308BD4802030054
:10462C0008B5024B1B685B69019308BD640203006B
:10463C0008B5024B1B681B68019308BD3C020300C4
:10464C0008B5024B1B68DB68019308BD3C020300F4
:10465C0008B5024B1B681B69019308BD3C020300A3
:10466C0008B5024B1B685B69019308BD3C02030053
:10467C0008B5024B1B689B69019308BD3C02030003
:10468C0008B5024B1B68DB69019308BD3C020300B3
:10469C0008B5024B1B681B6A019308BD3C02030062
:1046AC0008B5024B1B689B6A019308BD3C020300D2
:1046BC0008B5024B1B681B6A019308BD2802030056
:1046CC0008B5024B1B685B6A019308BD2802030006
:1046DC0008B5024B1B689B6A019308BD28020300B6
:1046EC0008B5024B1B68DB6A019308BD2802030066
:1046FC0008B5024B1B681B6B019308BD2802030015
:10470C0008B5024B1B685B6B019308BD28020300C4
:10471C0008B5024B1B681B6C019308BD28020300F3
:10472C0008B5024B1B68DB69019308BD300203001E
:10473C0008B5024B1B681B6A019308BD30020300CD
:10474C0008B5024B1B681B69019308BD24020300CA
:10475C0008B5024B1B685B69019308BD240203007A
:10476C0008B5024B1B689B69019308BD240203002A
:10477C0008B5024B1B681B68019308BD4C02030073
:10478C0008B5024B1B681B69019308BD4C02030062
:10479C0008B5024B1B685B69019308BD4C02030012
:1047AC0008B5024B1B689B69019308BD4C020300C2
:1047BC0008B5024B1B68DB69019308BD4C02030072
:1047CC0008B5024B1B681B6A019308BD4C02030021
:1047DC0008B5024B1B689B6B019308BD600203007C
:1047EC0008B5024B1B68DB6B019308BD600203002C
:1047FC0008B5024B1B685B68019308BD20020300DF
:10480C0008B5024B1B685B69019308BD20020300CD
:10481C0008B5024B1B68DB6C019308BD200203003A
:10482C0008B5024B1B685B6D019308BD20020300A9
:10483C0008B5034B1B68D3F88830019308BD000002
:10484C002002030008B5034B1B68D3F89430019386
:10485C0008BD00002002030008B5024B1B685B6812
:10486C00019308BD4002030008B5024B1B689B680E
:10487C00019308BD4002030008B5024B1B68DB68BE
:10488C00019308BD4002030008B5024B1B681B696D
:10489C00019308BD4002030008B5024B1B685B691D
:1048AC00019308BD4002030008B5024B1B689B69CD
:1048BC00019308BD4002030008B5024B1B68DB697D
:1048CC00019308BD4002030008B5024B1B681B6A2C
:1048DC00019308BD4002030008B5024B1B681B6B1B
:1048EC00019308BD4002030008B5024B1B685B6BCB
:1048FC00019308BD4002030008B5024B1B681B68FE
:10490C00019308BD4402030008B5024B1B685B68A9
:10491C00019308BD4402030008B5024B1B685B6998
:10492C00019308BD4402030008B5024B1B681B6AC7
:10493C00019308BD4402030008B5024B1B68DB6BF6
:10494C00019308BD4402030008B5024B1B681B68A9
:10495C00019308BD1C02030008B5024B1B685B6881
:10496C00019308BD1C02030008B5024B1B689B6831
:10497C00019308BD1C02030008B5024B1B68DB6ADF
:10498C00019308BD1C02030008B5024B1B681B6B8E
:10499C00019308BD1C02030008B5024B1B685B6C3D
:1049AC00019308BD1C020300002240681146FFF76A
:1049BC008BBF002240681146FFF796BF406800226B
:1049CC00FFF78ABF4068002281F00101FFF774BF36
:1049DC00002340681A461946FFF766BF002340685B
:1049EC001A461946FFF758BF002240681146FFF7D8
:1049FC004BBF002240681146FFF736BF40680022CB
:104A0C000221FFF739BF002340681A46FFF724BF85
:104A1C00024B03225A60024A1A60704744E7032093
:104A2C00F4610D0010B5044608462170FFF778FEBE
:104A3C0000236360204610BDB0F90020531C0BD03E
:104A4C00438880888B4203D88842034628BF0B4694
:104A5C00194690B2FFF784BE704713B5044608465A
:104A6C00B4F90610B4F90820884210DB9042A8BFB4
:104A7C001046A3880093638800F08EF9E36818440D
:104A8C0081B2204602B0BDE81040FFF7D5BF084602
:104A9C00EFE70000044A4FF41663C0E90023B42387
:104AAC0003810023C3607047FFFF200208B5FFF7A6
:104ABC00F1FF08BD10B50446B0F90000431C07D047
:104ACC0080B2FFF745FE2046FFF7E4FF012010BD42
:104ADC000020FCE710B50446FFF7ECFF204610BDA4
:104AEC002DE9F0410D4604460221284690461F460A
:104AFC00FFF74EFD022803D000263046BDE8F081BA
:104B0C00284601F0BDF906460028F5D0B4F900306E
:104B1C00013302D02046FFF7CDFFBDF91830E380FA
:104B2C00BDF91C302580A4F80280A780238128467B
:104B3C00FFF706FEE1E710B50446006818B1FFF771
:104B4C000BFF0023236010BD10B50446FFF7F3FFE5
:104B5C00204610BD10B5094B094C022200201A60EA
:104B6C00084B2060A080A071A360FFF741FE204697
:104B7C00054A0649BDE8104001F042BA58E7032047
:104B8C004CE703200000FFFF28E70320554B0D00E6
:104B9C0010B504460068FFF7DFFE204610BD10B5C7
:104BAC000446006808B1FFF7D7FE0023C4E90133BF
:104BBC00236010BD38B504460D4600680131FFF77F
:104BCC00D3FE10B1C4E90005012038BD10B503684F
:104BDC00044623B143688B4201D3012010BD20460B
:104BEC00FFF7E8FF0028F9D0A368002BF5D1226865
:104BFC001370F2E737B50D46114601920446FFF7E4
:104C0C00E5FF019A28B92046FFF7C9FF204603B0FB
:104C1C0030BDA2602946206801F00EFA2268A36814
:104C2C000021D154F2E7002313B5C0E90033044648
:104C3C008360037341B10846019101F078FA019940
:104C4C0002462046FFF7D6FF204602B010BD884230
:104C5C0010B5044605D00B682BB18A681946FFF7CE
:104C6C00C9FF204610BDFFF79AFFFAE710B50023E5
:104C7C000446C0E9003383600373FFF7E8FF204666
:104C8C0010BD08B582683AB921B10878B0FA80F045
:104C9C00400900E0012008BD006809B90078F5E77B
:104CAC0001F01EFAF2E710B50446006808B1FFF7F0
:104CBC00AFFC204610BD000010B5064C002320466A
:104CCC002360FFF79DFC2046034A0449BDE81040D1
:104CDC0001F096B95CE7032028E70320B34C0D00E4
:104CEC00F8B506460D468F180024BD420CD033682B
:104CFC0015F8011B9B6830469847031E01DB1C44CA
:104D0C00F3E7002C08BF1C462046F8BD13B504463B
:104D1C00084659B1019101F00AFA23680199DB6840
:104D2C000246204602B0BDE81040184702B010BD44
:104D3C0003689B68184730B58BB000238DF824307E
:104D4C00012A98BF0A2209AC0D46B1FBF2F101FB16
:104D5C00125303F0FF03092B94BF30333733DBB20C
:104D6C00AA4204F8013DEFD92146FFF7CFFF0BB063
:104D7C0030BD0000014B024A1A60704760E7032007
:104D8C0020620D00024B1A68024B1A60704700BF7C
:104D9C00C0E6032064E703208A4210B507D0029CCA
:104DAC00401AE41A6043521A90FBF2F0184410BDFA
:104DBC000021FFF725BD10B58368044613B103220B
:104DCC0001469847204610BD10B50446FFF7F3FF87
:104DDC00204610BD13B50B460246D0E900016C46C7
:104DEC0084E8030093E8030082E8030094E80300DE
:104DFC0083E8030002B010BD0348044A04490023B1
:104E0C00836001F0FDB800BF68E7032028E70320AA
:104E1C00D54D0D00014B1860704700BFC4E6032050
:104E2C0008B50B4B43B100F029FC03681B6998478C
:104E3C00002801DDAFF30080064B43B100F09CFC71
:104E4C0003681B699847002801DDAFF3008008BD9B
:104E5C00000000000000000008B5FFF7E1FFFFF7BD
:104E6C00C7FB014B186008BDD4E703200248034A76
:104E7C000349121A01F0E0B800F4032004F40320F3
:104E8C00B0630D0007B5002300931A466FF077014D
:104E9C00FFF7D8FC03B05DF804FB000007B54388AE
:104EAC000A2B08D0502B0BD1094B1B684BB103B00C
:104EBC005DF804EB1847FFF7E5FF03B05DF804FB62
:104ECC00002300931A466FF07701FFF7BBFCF4E761
:104EDC007CE7032038B5124C1248134D0021FFF724
:104EEC005BFD2368AB42114B0CBF012200221A70F0
:104EFC0002D0FFF7BBFF2560FFF772FB044601F001
:104F0C00CBF80B4B13B12046AFF3008000210848BF
:104F1C00FFF712FDBDE8384006480021FFF788BCBA
:104F2C0000F40320214E0D001E1C279A78E7032065
:104F3C0000000000A94E0D0070470020704710B50E
:104F4C001021044601F061F8204610BD08B5FFF7AA
:104F5C00F6FF08BD30B500224FF69C7402608480C9
:104F6C008D888C800C68858004600A6030BD10B51B
:104F7C0004460068FFF7F0FC204610BD38B5C46845
:104F8C00F4B12378022B03D104F10C00FFF7EFFFEF
:104F9C00656835B12846FFF70EFF1021284601F051
:104FAC0034F8A56835B12846FFF705FF10212846CF
:104FBC0001F02BF820461421BDE8384001F025B84B
:104FCC0038BD10B588B004466846FFF72CFE69461C
:104FDC0004A8FFF74BFE04A8A047044604A8FFF75B
:104FEC00D7FD6846FFF7D4FD204608B010BD1FB5AD
:104FFC0004466846FFF717FEA3680BB901F00BF8DF
:10500C00E36869462046984704466846FFF7C0FDAA
:10501C00204604B010BD1FB50023CDE9020101925A
:10502C0010241A4669461846ADF80230ADF8004017
:10503C00FFF76AFC04B010BD73B50E46044656F873
:10504C00043B00930D4601A83146FFF7FBF8019A8B
:10505C00009B6260236001A8002301930093FFF77B
:10506C00DBF83046FFF7D8F82846082100F0CDFFD2
:10507C00204602B070BD826810B50AB900F0CBFFB3
:10508C00BDE81040C368184708B5006800F110016E
:10509C00FFF7F1FF08BD826810B50AB900F0BBFF3D
:1050AC00BDE81040C368184708B5006800F110014E
:1050BC00FFF7F1FF08BD000038B50023044603607C
:1050CC0010200D46FEF7DFFF28B10123C0E90133A4
:1050DC00024B0360C5602060204638BD48620D005D
:1050EC0038B5002383608B6804460D462BB1022231
:1050FC009847EB68E360AB68A360204638BD0000BE
:10510C00F0B589B004686846FFF724FF4FF002033E
:10511C00D4E84F2F002A03D1C4E8413F0029F7D12E
:10512C0025D104F10C0569462846FFF713FFBFF3A0
:10513C005B8F01236370002004F10803BFF35B8FC6
:10514C0053E8006F43E80002002AF9D1BFF35B8FEC
:10515C006EB1FFF75DFB78B129463046FFF78BFF48
:10516C003046FFF728FE1021304600F04EFF68460F
:10517C00FFF7FDFE09B0F0BD314602A8FFF7B0FF06
:10518C00E068B4F9105008B100F0B4FF069010209C
:10519C00ADF81C50FEF777FF0546E8B10027876095
:1051AC001820FEF770FF044688B10146876002A8FC
:1051BC00FFF710FE049BA268A360059B049206A94E
:1051CC00E268E36004F110000592FFF7C3FE084BA0
:1051DC00EB60084B2C60AB6006A8FFF7C8FE02A87A
:1051EC00FFF7E9FD002229460348FFF719FBB7E753
:1051FC0095500D002D530D000D580D002DE9F04765
:10520C008AB005469DF848900C4617469846FFF71D
:10521C0083FB07AE824638BB4FF62E73059005A96B
:10522C003046ADF81830FFF795FE1420FEF72BFF33
:10523C00044648B1022303700123C0E901AA43705C
:10524C0031460C30FFF786FE2846214640F8044BC9
:10525C00FFF732FF3046FFF78AFE05A8FFF787FEFF
:10526C0028460AB0BDE8F0870C234FF0000A142042
:10527C00CDE908AA0793FEF706FF014628B1C0E95D
:10528C0001AA80F800A080F801A004A80391FFF700
:10529C0013FF224B08930820FEF7F5FE824628B137
:1052AC00039B40F8043B04A9FEF7CCFF00965FFA81
:1052BC0089F3424639462046CDF824A0FFF734FB4B
:1052CC00B8B9039B5B7803F0FF0293B94FF69C735C
:1052DC0005A903A80592ADF81830FFF711FF05A832
:1052EC00FFF745FE05A80999FFF7A6FE06A8FEF7ED
:1052FC0093FF039B059304A906A8FEF7A3FF059B48
:10530C00069A2B606A60002306A806930593FEF7A5
:10531C0083FF04A8FEF780FFA2E700BFF1530D0046
:10532C00022AF8B5054607D0032A18D0012A01D164
:10533C000B6803600020F8BD18200E68FEF7A3FE72
:10534C00044650B13146FFF7CBFE3069B6F9147004
:10535C0008B100F0CFFE2061A7822C60EAE7046858
:10536C00002CE7D004F11000FFF701FE2046FFF7F8
:10537C0022FD1821204600F048FEDBE738B500235B
:10538C0083608B6804460D462BB102229847EB686C
:10539C00E360AB68A360204638BD022A70B50446B2
:1053AC0007D0032A12D0012A01D10B680360002018
:1053BC0070BD14200E68FEF766FE054620B131461E
:1053CC00FFF7DCFF337C2B742560F0E70468002CBE
:1053DC00EDD02046FFF7EFFC1421204600F015FE1F
:1053EC00E5E70000F0B589B004460D4601A811466A
:1053FC00FFF722FEA4B124B21DB1284600F07AFEBC
:10540C00054601A803A90395ADF81040FFF778FEF7
:10541C0003A8FFF7ACFD02A8FEF7FEFE09B0F0BD35
:10542C00019D0123D5E84F2F002A03D1C5E8413F48
:10543C000029F7D1EFD12B73BFF35B8F6B702B1D52
:10544C00BFF35B8F53E8006F43E80042002AF9D1A9
:10545C00BFF35B8F002EDED02046FFF7D9F907464D
:10546C0060B105F10C013046FFF715FE3046FFF731
:10547C00A2FC1021304600F0C8FDCCE7314603A851
:10548C00FFF77CFF2B7B8DF81C301020FEF7FBFD0B
:10549C000546D0B187601420FEF7F5FD044678B1BF
:1054AC008760014603A8FFF795FC059BA268A360E3
:1054BC00069B0592E268E3609DF81C30069223740B
:1054CC00064BEB60064B2C60AB6003A8FFF773FC3C
:1054DC00002229460348FFF7A3F9C7E7B5500D0092
:1054EC00A7530D000D580D00704710B51821044638
:1054FC0000F08BFD204610BDF0B5037D062B8DB062
:10550C000E4600F104074FF0000412D000F108051C
:10551C0015F8011D0A223046FFF70DFCAF4204447A
:10552C0019D0002CF4D02E213046FFF701FC044496
:10553C00EEE72F236A4639460A208DF80040FFF724
:10554C006FF8684600F0F3FD33680246DB68694685
:10555C0030469847044620460DB0F0BD10B5054BBB
:10556C000446112240F8043B002100F08DFD20463A
:10557C0010BD00BF64620D000346074A10B543F826
:10558C00042B01F1100251F8044B43F8044B9142E7
:10559C00F9D10A781A7010BD64620D0010B59DF82F
:1055AC00084044EA032343EA024242EA016104232D
:1055BC004160037510BD13B5CB7800938B784A7896
:1055CC000978FFF7EBFF02B010BD417470477047CC
:1055DC0008B50021007CFFF7E3F840EAE07008BD55
:1055EC0008B50121007CFFF7DBF840EAE07008BD4C
:1055FC0008B5007CFFF7CCF820EAE07008BD08B5D0
:10560C00007CFFF7BDF820EAE07008BD13B5044636
:10561C00007C0191FFF7BCF80028019901DC607C4B
:10562C0020B1207CFFF7C4F820EAE07002B010BD76
:10563C00007CFFF7C5B810B51421044600F0E5FC5A
:10564C00204610BD10B54FF47A730446084600216D
:10565C00C4E90113044B23600123207463741146C5
:10566C00FFF786F8204610BD78620D0010B51422A5
:10567C000446002100F008FD204610BD10B5104C6A
:10568C0088B003A8FFF7F2FF2178BFF35B8F11F00E
:10569C00010111D120460191FEF7FDFC019958B191
:1056AC0003AA0848FFF7CEFF2046FEF7F9FC064A8E
:1056BC000649044800F0A4FC024808B010BD00BF25
:1056CC0080E7032084E7032028E70320DB550D0047
:1056DC0070474174704708B5007CFEF7E1FF20EA83
:1056EC00E07008BD08B5007CFEF7B2FF20EAE07060
:1056FC0008BD08B5007CFEF7BBFF40EAE07008BDB2
:10570C0008B5007CFEF7ACFF40EAE07008BD007CF9
:10571C00FEF7B6BF37B5457C04462DB1207C03B0EF
:10572C00BDE83040FEF78CBF007C0191FEF7B8FF5E
:10573C0000280199F2DC284603B030BD10B51421C5
:10574C00044600F062FC204610BD000010B54FF07E
:10575C00000C0446084611464FF47A72C4E901C2A3
:10576C00044A22600122207462741A46FEF760FF1C
:10577C00204610BDA8620D00F7B51B4C26684EB92B
:10578C008420FEF780FC054618B18422314600F0D7
:10579C007BFC2560154D2F684FB98420FEF773FCF8
:1057AC00064618B18422394600F06EFC2E60104E6D
:1057BC003178BFF35B8F11F0010112D130460191AA
:1057CC00FEF769FC019960B122682B680948FFF764
:1057DC00BDFF3046FEF764FC074A0849054800F057
:1057EC000FFC044803B0F0BD9CE70320A0E70320A6
:1057FC0098E70320A4E7032028E70320DD560D00DB
:10580C0010B5836804460BB900F005FCC3689847D3
:10581C00A3681BB10322214620469847204610213D
:10582C00BDE8104000F0F1BB7047F8B506461546D0
:10583C000C468F18BC4206D0336814F8011B9B68C9
:10584C0030469847F6E72846F8BD007C0022FEF764
:10585C002FBF007C0021FEF733BF007C0021FEF738
:10586C0037BF007C0021FEF73BBF007C0021FEF718
:10587C003FBF10B51421044600F0C7FB204610BDF5
:10588C0010B54FF47A73044608460021C4E901139D
:10589C00034B236020741146FEF73AFF204610BDDF
:1058AC00D8620D00002240681146FEF7EDBF0022C1
:1058BC0040681146FFF708B8002240681146FFF710
:1058CC0013B840680022FFF707B84068002281F047
:1058DC000101FEF7F1BF002340681A461946FEF796
:1058EC00E3BF002340681A461946FEF7D5BF0022D5
:1058FC0040681146FEF7B8BF406800220221FEF74F
:10590C00BBBF002340681A46FEF7A6BF024B042219
:10591C005A60024A1A607047B8E7032000630D0012
:10592C00002340681A46FEF797BF40680022022108
:10593C00FEF7A2BF002240681146FEF795BF002279
:10594C0040681146FEF7A0BF002340681A4619466E
:10595C00FEF7A2BF002340681A461946FEF7A4BF03
:10596C004068002281F00101FEF7A6BF40680022CA
:10597C00FEF7B2BF002240681146FEF7B5BF002209
:10598C0040681146FEF7A0BF2DE9F043002495B006
:10599C0016460D460746FFF7E1FD214618220EA8D4
:1059AC00009400F071FB4023CDE90C3421466B468A
:1059BC000CAA3046FEF7E4FD0446002846D1024608
:1059CC0001216868FEF760FF022180462246686864
:1059DC00FEF75AFF009E81462146002E36D0002944
:1059EC0034D17368022B03D00A2B0BD0F669F4E781
:1059FC00B8F1000F04D0716938460431FFF7DBFDB4
:105A0C004146F3E7B9F1000F01D14946EEE774695D
:105A1C00102201A800F038FB06238DF8143001ADDC
:105A2C0004F108031834186859682A4603C208336D
:105A3C00A3421546F7D101A906A807ADFFF79CFDB7
:105A4C000FCD3C1D0FC42B682370DEE70098FEF7CA
:105A5C008FFD384615B0BDE8F0830000024B034AB9
:105A6C001A6000225A607047C0E7032034630D00AF
:105A7C0000F11003012213F8101C0129184608D15B
:105A8C0053F8041C02EB4102013A03F11003F2D16A
:105A9C007047022904BF53F8041C5218F4E77047EE
:105AAC000020704710B51021044600F0AEFA2046D5
:105ABC0010BD08B5FFF7F6FF08BD10B5C4687CB182
:105ACC00206808B1FEF7E5FA237A1BB1606808B1CB
:105ADC00FEF7DFFA20460C21BDE8104000F095BA25
:105AEC0010BD10B5036804469B689847A368013B3A
:105AFC00A3602BB923682046DB68BDE8104018472B
:105B0C0010BD38B50B6803604D6843689D42044670
:105B1C000CD015B16B6801336B60606828B14368B9
:105B2C00013B43600BB9FFF7DCFF6560204638BDD5
:105B3C000B461146002210B5C0E9002204468360D2
:105B4C000BB9204610BDFFF7DCFFFAE72DE9F04753
:105B5C0086B00746884602A80021002499461023E7
:105B6C0092460293FEF734FECDE9004423464246AA
:105B7C00394602A8FEF734FE061E1EDD1049300120
:105B8C0000F047FA054690B1214602A8FEF720FE28
:105B9C00CDE900642B464246394602A8FEF720FEAA
:105BAC00A04207DDCAF800500120C9F8006006B019
:105BBC00BDE8F0872846FEF76CFA2046F7E700BFF1
:105BCC007C630D002DE9F84F436886680B448846CA
:105BDC000E4407461C4619464FF00D094FF0090AB2
:105BEC00B44263D0254615F8012B5C2A2BD1A14277
:105BFC0007D0A4EB010B18465A4600F02BFA0346CB
:105C0C005B44B54239D06278752A2AD1A21CB21AEB
:105C1C00032A32DDA01D04F1050E4FF0000CAE4539
:105C2C0053D015F8011FA1F130025FFA82FBBBF1D2
:105C3C00090F05D9A1F16102052A07D8A1F1570274
:105C4C0042EA0C1CEBE728460446C9E7A1F14102E5
:105C5C00052A12D8A1F13702F2E703F801CB01466D
:105C6C00F2E76E2A1CD00ED8622A13D007D82F2A3E
:105C7C0011D05C2A0FD0222A0DD0002023E0662AF6
:105C8C00FBD10C2207E0722A0DD0742AF5D183F8CF
:105C9C0000A001E008221A70A11C01330846D3E7CA
:105CAC004FF00A02F7E783F80090F5E7A14206D01F
:105CBC00641A1846224600F0CDF903462344A3EBA0
:105CCC000803BB600120BDE8F88FBCF17F0FC4D97D
:105CDC002146B9E7F8B50446154600EB0116002736
:105CEC00B44210D02378032B08D129462046FFF765
:105CFC0069FF48B1A368EF541034F1E7002BFBD1D6
:105D0C00A268AB54F8E70120F8BD000038B50023B9
:105D1C00C0E9003304460E48C4E90203A9B10B786C
:105D2C00032B06D08BB9136858684B68C35C6E2B79
:105D3C0007D013684D6858688B6828445B1BA060BB
:105D4C00E36011462046FFF7DCFE204638BD00BF5D
:105D5C00D5610D0038B500250B46C0E90055C0E9EA
:105D6C000255C0E90455044611464BB11A78012A74
:105D7C0006D103F11002DB6882604361FFF7C1FEBC
:105D8C00204638BD10B54369044663B18068E060B5
:105D9C00013B1030A0602061636113B1FFF768FE16
:105DAC00A060012000E0184610BD000038B50023AB
:105DBC000446036010200D46FEF765F928B1012357
:105DCC00C0E90133024B0360C5602060204638BD3A
:105DDC0068630D00F0B5044687B00E460C202749C9
:105DEC00154600F014F9014618B10023C0E9003340
:105DFC00037203A80291FFF7D9FF029A42B9C4E9D2
:105E0C000022A26003A8FEF707FA204607B0F0BDF7
:105E1C0000230193294601AB3046FFF797FE18B9D2
:105E2C00C4E90000A060EDE71449029F681C00F073
:105E3C00F0F8029B786058680028F1D02A46314669
:105E4C0000F0FAF8029B0199186801221A725A683C
:105E5C00FFF740FF0028E3D0029B19680493039BD3
:105E6C00059313B15A6801325A6004AA2046FFF711
:105E7C005FFE05A8FEF7D0F9C4E700BF7C630D00F8
:105E8C00232813B502D9002002B010BDA0F10B03DA
:105E9C00022B1AD8174C2178BFF35B8F11F001013C
:105EAC000BD120460191FEF7F6F8019928B1124862
:105EBC00FEF7B8FD2046FEF7F3F80F4B1878FEF707
:105ECC0037FC0028DFD10120DEE7012809D800F0DB
:105EDC006FF80021007CFEF713FC80F00100C0B2CB
:105EEC00D2E709380128EED8FFF746FC007CFEF714
:105EFC00CFFBF2E7C8E70320CCE70320232838B513
:105F0C0004460D460AD8FF2908D0FFF7B9FF28B17F
:105F1C0029462046BDE83840FEF742BB38BD38B5AF
:105F2C0004460D46FEF744FBFF2810D0062804D883
:105F3C004D2323FA00F0C30709D42046FFF7A0FF36
:105F4C0028B129462046BDE83840FEF739BB38BD9C
:105F5C000D2810B504469CBF0E34A4B22046FFF7A2
:105F6C008FFF50B103212046FEF712FB032804D10A
:105F7C002046BDE81040FEF72BBB002010BD0000F2
:105F8C0038B5002320254380142304460380856004
:105F9C0005610649284600F03CF804496060284633
:105FAC0000F037F8E060204638BD00BF7C630D0080
:105FBC0030B50F4D2978BFF35B8F11F0010487B01A
:105FCC0013D12846FEF767F878B101A8FFF7D8FF80
:105FDC0001AA21460748FFF753FC2846FEF760F854
:105FEC00054A0649034800F00BF8024807B030BDDB
:105FFC00D8E70320DCE7032028E7032035580D0001
:10600C000B460146184600F009B8FEF740B8FEF7FB
:10601C003AB8FEF73AB808B5FEF7AEFC10B5054C29
:10602C0013462CB10A4601460220AFF3008010BD86
:10603C002046FCE7000000000A44914200F1FF33C7
:10604C0000D1704710B511F8014B03F8014F914284
:10605C00F9D110BD884210B501EB020402D984427B
:10606C00234607D8431EA14208D011F8012B03F890
:10607C00012FF8E7024401468A4200D110BD13F803
:10608C00014D02F8014DF7E702440346934200D15B
:10609C00704703F8011BF9E738B50D4B1D68AB6B66
:1060AC0004467BB91820FEF74FFC0A4A0A4BA8633A
:1060BC00C0E90023094B83600B2383810122002359
:1060CC00C0E90423AB6B00221C615A6138BD00BFD0
:1060DC00C4E603200E33CDAB34126DE6ECDE0500C6
:1060EC0010F8012B11F8013B012A28BF9A42F7D076
:1060FC00D01A7047024B0146186800F003B800BF75
:10610C00C4E6032037B5044608460D4600F00FF8E8
:10611C00421C114620460192FEF736FC044618B18B
:10612C00019A2946FFF788FF204603B030BD03468D
:10613C0013F8012B002AFBD1181A01387047000004
:10614C001D400D0059400D0081400D0085400D0093
:10615C000000000073656E736F7200616E616C6F8E
:10616C006776616C7565006D61737465725F636FE2
:10617C006D6D616E6400616363657373004163638D
:10618C00657074006C6F636B5F686F6F6B00646F2E
:10619C006F72206973206F70656E00646F6F722070
:1061AC00697320636C6F73656400646F6F72206930
:1061BC007320616C7265616479206F70656E002D5F
:1061CC00320044656E79002D31006D617374657217
:1061DC0020636F6D6D616E64206572726F7200006A
:1061EC000000000000000000134A0D00094A0D00D9
:1061FC00FF490D00F5490D00E9490D00DD490D0081
:10620C00D1490D00C9490D00BF490D00B5490D001C
:10621C0095590D006170700025592D256D2D256443
:10622C005425483A254D3A2553257A0061736374F9
:10623C00696D65000000000000000000454F0D0076
:10624C004B4F0D00894F0D00594F0D00474F0D005E
:10625C00000000000000000005550D00F5540D0075
:10626C00F7540D000000000000000000DB550D008D
:10627C0043560D0019560D00ED4C0D000B560D003C
:10628C00DD550D00ED550D003D560D00FD550D0075
:10629C00D7550D000000000000000000DD560D0079
:1062AC0049570D0021570D00ED4C0D00F1560D0016
:1062BC000D570D00FF560D001B570D00DF560D003E
:1062CC00E3560D00000000000000000035580D00E2
:1062DC007F580D0057580D0037580D005F580D00B2
:1062EC0067580D006F580D0077580D000000000026
:1062FC00000000000F590D0005590D00FB580D0052
:10630C00B1580D00EF580D00E3580D00D7580D0093
:10631C00CF580D00C5580D00BB580D0095590D00F8
:10632C0000000000000000002D590D0037590D0031
:10633C0041590D004B590D0055590D0061590D0077
:10634C006D590D0079590D0081590D008B590D00B7
:10635C0095590D000000000000000000AB5A0D0024
:10636C00B15A0D00C75A0D00BF5A0D00AD5A0D00A1
:10637C00000000004D450D001D4A0D00614B0D0045
:10638C00C54C0D00814D0D00914D0D00054E0D00BD
:10639C0019590D00695A0D000000000000000000A2
:0463AC0000000000ED
:0463B00000000000E9
:1063B4000400000003000000130000000E000000B1
:1063C4000600000038620D00C8E60320000000004B
:1063D40000000000000000000000000000000000B9
:1063E40000000000000000000000000000000000A9
:1063F4000000000000000000000000000000000099
:106404000000000000000000000000000000000088
:106414000000000000000000000000000000000078
:0C6424000000000000000000000000006C
:10643000FFFFFFFF00000102030405060708090A29
:106440000B0C0D0E0F101112131415161718191A24
:086450001B1C1D1E1F2028006B
:04645800785634122C
:04000003D000401CCD
:00000001FF
