:02000002D0002C
:1040000000400D00C8640D00000006000C00050112
:084010000401D70700000000C5
:04401800B8610D007E
:10401C0009480A49884208B505D0094A824202D0AB
:10402C00121A02F03FF80748074A0021121A02F050
:10403C0061F8014808BD00BFACE6032024640D0004
:10404C0028E7032028E70320F0E7032070B5074E8C
:10405C00074C00F075FFA41BA4080025A54200D155
:10406C0070BD56F8043B98470135F7E7F8630D002F
:10407C001C640D0000F080B808B500F0EBF8BDE84A
:10408C00084000F01FBF00F09DBC00F09BBC00F08E
:10409C00A1BC00F09FBC0078B0FA80F040097047DA
:1040AC00012303707047036808681847012A03D07E
:1040BC00022A03D0002070470160FBE70B68036005
:1040CC00F8E7000070B50E4E0E4D30880E4C0121F5
:1040DC0001F05BFF0121288801F057FFC82000F098
:1040EC00A5FE0A4B188801F069FF0021206030887A
:1040FC0001F04BFF2888002101F047FF206870BDBC
:10410C00B8E60320B0E6032030E70320B4E6032032
:10411C0070B5064610200D46FFF7B5FF044688B172
:10412C0000238360AB6833B1022229469847EB68C1
:10413C00E360AB68A360324621460348BDE870409B
:10414C0000F09FBF70BD00BF67500D0037B59DF8E4
:10415C0018501D438DF800503C23044601F084F8A0
:10416C00204603B030BD10B58368044613B103225A
:10417C0001469847204610BD30B587B0244B254DDD
:10418C00254C2648029302A904940595FFF7C0FF1D
:10419C0002A8FFF7E8FF224B2248029302A9CDE9BF
:1041AC000445FFF7B5FF02A8FFF7DDFF1E4A1F49C4
:1041BC001F4800F066FF1F491F480023022200F031
:1041CC00D9FB0024B4234FF40872CDE9004302213B
:1041DC004FF41663194800F0C1FC194B214618889E
:1041EC0001F0C2FE174B0121188801F0BDFE164BE1
:1041FC000121188801F0B8FE144B0121188801F038
:10420C00B3FE134B0121188801F0AEFE07B030BD90
:10421C00E9420D00B3400D00B9400D00CC610D001A
:10422C00A9420D00DB610D00E7610D00D1400D00CE
:10423C003B500D0030E70320EE610D0034E7032006
:10424C00B4E60320B8E60320B0E60320ACE6032076
:10425C00BCE603207047000008B5044B188801F039
:10426C00ADFE6428D4BF0020012008BDB4E60320B5
:10427C0038B5046805467CB16368013B63605BB983
:10428C00236820469B689847A368013BA3601BB931
:10429C0023682046DB689847284638BD1FB50024A4
:1042AC00074B8DF800401B78064A074902A8FFF718
:1042BC004DFF03A8FFF7DCFF204604B010BD00BF84
:1042CC002CE703204C620D00DB610D000B680360D2
:1042DC0013B15A6801325A60704700002DE9F04161
:1042EC0098B0A44D039001F058FF0399024604A81E
:1042FC0001F0A6FD069C049B0E9305A90FA8FFF7E1
:10430C00E5FF0EAA214612A801F05AFD0FA8FFF7EF
:10431C00AFFF12A801F06CFD002800F02881169C5C
:10432C00129B0E9313A90FA8FFF7D0FF0EAA2146DC
:10433C0007A801F033FC0FA8FFF79AFF099C079B15
:10434C000A9308A90BA8FFF7C1FF0AAA21460EA8D9
:10435C0001F012FD0BA8FFF78BFF10990AA800F0D3
:10436C00A0FC0FA8FFF784FF08A8FFF781FF159C9E
:10437C00129B079313A908A8FFF7A8FF214607AAC9
:10438C000EA801F0F9FC08A8FFF772FF1098294657
:10439C0001F0DCFE04460FA8FFF76AFF002C40F08A
:1043AC00E2807549754E0AA800F0A9FC002800F0BF
:1043BC00A580734F734D3888012101F0E6FD012172
:1043CC00288801F0E2FDC82000F030FDFFF744FF23
:1043DC008DF800403378002852D16B4A6B496C4DF4
:1043EC000EA8FFF7B3FE0FA8FFF742FF8DF80040B1
:1043FC003378684922460EA8FFF7A8FE0FA8FFF7EE
:10440C0037FF2888012101F0C0FD6348B42100F07A
:10441C0062FB42F2107000F009FDA846FFF71CFF8A
:10442C00054618B10A2000F001FDF7E701465A488D
:10443C0000F051FB8DF80050337858492A460EA8ED
:10444C00FFF784FE0FA8FFF713FFB8F8000029460A
:10445C0001F09BFD4B4B2946188801F096FD3888DE
:10446C00294601F092FD0AA800F0D0FB13A8FFF733
:10447C00FFFE05A8FFF7FCFE204618B0BDE8F08152
:10448C0022464749DFF808810EA8FFF75FFE0FA808
:10449C00FFF7EEFE8DF800403378424A3B490EA8F8
:1044AC00FFF754FE0FA8FFF7E3FE05240121B8F82F
:1044BC0000003D4E01F069FD4FF4FA7000F0B6FCBF
:1044CC00B8F80000002101F060FD0121308801F0F6
:1044DC005CFD4FF4FA7000F0A9FC3088002101F06B
:1044EC0054FD013CE2D12146288801F04EFD2146C5
:1044FC00388801F04AFD6FF00104B4E72B490AA893
:10450C0000F0FDFB8DF800403378B0B1284A1F490C
:10451C00254D0EA8FFF71AFE0FA8FFF7A9FE0121E3
:10452C00288801F032FD4FF4FA6000F07FFC214640
:10453C00288801F02AFD022495E71E4A13490EA88B
:10454C00FFF704FE0FA8FFF793FE8DF800403378B9
:10455C000A9A19490EA8FFF7F9FD0FA8FFF788FE74
:10456C004FF0FF347FE70AA800F050FBD1E66FF064
:10457C0001047BE7FA610D0001620D002CE70320BA
:10458C00B8E60320B0E603204C620D0008620D0073
:10459C00ACE6032012620D0034E703201F620D000D
:1045AC002E620D0043620D00BCE6032046620D0036
:1045BC0044620D004B620D004E620D0010B5074BAE
:1045CC00074C01221A70204600F0AEFA2046054A2C
:1045DC000549BDE8104001F049BD00BF2CE70320A0
:1045EC0034E7032028E703205D4B0D0008B5024B90
:1045FC001B689B68019308BD6802030008B5024B59
:10460C001B68DB68019308BD6802030008B5024B08
:10461C001B685B68019308BD2C02030008B5024BB4
:10462C001B689B68019308BD2C02030008B5024B64
:10463C001B68DB68019308BD2C02030008B5024B14
:10464C001B681B69019308BD2C02030008B5024BC3
:10465C001B681B6B019308BD2C02030008B5024BB1
:10466C001B685B68019308BD1802030008B5024B78
:10467C001B685B69019308BD1802030008B5024B67
:10468C001B685B6C019308BD4802030008B5024B24
:10469C001B689B6C019308BD4802030008B5024BD4
:1046AC001B685B69019308BD6402030008B5024BEB
:1046BC001B681B68019308BD3C02030008B5024B44
:1046CC001B68DB68019308BD3C02030008B5024B74
:1046DC001B681B69019308BD3C02030008B5024B23
:1046EC001B685B69019308BD3C02030008B5024BD3
:1046FC001B689B69019308BD3C02030008B5024B83
:10470C001B68DB69019308BD3C02030008B5024B32
:10471C001B681B6A019308BD3C02030008B5024BE1
:10472C001B689B6A019308BD3C02030008B5024B51
:10473C001B681B6A019308BD2802030008B5024BD5
:10474C001B685B6A019308BD2802030008B5024B85
:10475C001B689B6A019308BD2802030008B5024B35
:10476C001B68DB6A019308BD2802030008B5024BE5
:10477C001B681B6B019308BD2802030008B5024B94
:10478C001B685B6B019308BD2802030008B5024B44
:10479C001B681B6C019308BD2802030008B5024B73
:1047AC001B68DB69019308BD3002030008B5024B9E
:1047BC001B681B6A019308BD3002030008B5024B4D
:1047CC001B681B69019308BD2402030008B5024B4A
:1047DC001B685B69019308BD2402030008B5024BFA
:1047EC001B689B69019308BD2402030008B5024BAA
:1047FC001B681B68019308BD4C02030008B5024BF3
:10480C001B681B69019308BD4C02030008B5024BE1
:10481C001B685B69019308BD4C02030008B5024B91
:10482C001B689B69019308BD4C02030008B5024B41
:10483C001B68DB69019308BD4C02030008B5024BF1
:10484C001B681B6A019308BD4C02030008B5024BA0
:10485C001B689B6B019308BD6002030008B5024BFB
:10486C001B68DB6B019308BD6002030008B5024BAB
:10487C001B685B68019308BD2002030008B5024B5E
:10488C001B685B69019308BD2002030008B5024B4D
:10489C001B68DB6C019308BD2002030008B5024BBA
:1048AC001B685B6D019308BD2002030008B5034B28
:1048BC001B68D3F88830019308BD00002002030068
:1048CC0008B5034B1B68D3F89430019308BD000066
:1048DC002002030008B5024B1B685B68019308BDFE
:1048EC004002030008B5024B1B689B68019308BD8E
:1048FC004002030008B5024B1B68DB68019308BD3E
:10490C004002030008B5024B1B681B69019308BDEC
:10491C004002030008B5024B1B685B69019308BD9C
:10492C004002030008B5024B1B689B69019308BD4C
:10493C004002030008B5024B1B68DB69019308BDFC
:10494C004002030008B5024B1B681B6A019308BDAB
:10495C004002030008B5024B1B681B6B019308BD9A
:10496C004002030008B5024B1B685B6B019308BD4A
:10497C004002030008B5024B1B681B68019308BD7D
:10498C004402030008B5024B1B685B68019308BD29
:10499C004402030008B5024B1B685B69019308BD18
:1049AC004402030008B5024B1B681B6A019308BD47
:1049BC004402030008B5024B1B68DB6B019308BD76
:1049CC004402030008B5024B1B681B68019308BD29
:1049DC001C02030008B5024B1B685B68019308BD01
:1049EC001C02030008B5024B1B689B68019308BDB1
:1049FC001C02030008B5024B1B68DB6A019308BD5F
:104A0C001C02030008B5024B1B681B6B019308BD0D
:104A1C001C02030008B5024B1B685B6C019308BDBC
:104A2C001C020300002240681146FFF78BBF0022D6
:104A3C0040681146FFF796BF40680022FFF78ABF17
:104A4C004068002281F00101FFF774BF0023406829
:104A5C001A461946FFF766BF002340681A461946E6
:104A6C00FFF758BF002240681146FFF74BBF0022EA
:104A7C0040681146FFF736BF406800220221FFF75D
:104A8C0039BF002340681A46FFF724BF024B0322AC
:104A9C005A60024A1A60704744E703206C620D00AA
:104AAC0010B5044608462170FFF778FE00236360BA
:104ABC00204610BDB0F90020531C0BD043888088D1
:104ACC008B4203D88842034628BF0B46194690B246
:104ADC00FFF784BE704713B504460846B4F90610B8
:104AEC00B4F90820884210DB9042A8BF1046A38876
:104AFC000093638800F08EF9E368184481B2204675
:104B0C0002B0BDE81040FFF7D5BF0846EFE7000044
:104B1C00044A4FF41663C0E90023B4230381002335
:104B2C00C3607047FFFF200208B5FFF7F1FF08BD17
:104B3C0010B50446B0F90000431C07D080B2FFF753
:104B4C0045FE2046FFF7E4FF012010BD0020FCE7E6
:104B5C0010B50446FFF7ECFF204610BD2DE9F041DF
:104B6C000D4604460221284690461F46FFF74EFD8F
:104B7C00022803D000263046BDE8F081284601F01B
:104B8C00B5F906460028F5D0B4F90030013302D04F
:104B9C002046FFF7CDFFBDF91830E380BDF91C307E
:104BAC002580A4F80280A78023812846FFF706FE03
:104BBC00E1E710B50446006818B1FFF70BFF0023BE
:104BCC00236010BD10B50446FFF7F3FF204610BD5F
:104BDC0010B5094B094C022200201A60084B2060CA
:104BEC00A080A071A360FFF741FE2046054A06494C
:104BFC00BDE8104001F03ABA58E703204CE7032017
:104C0C000000FFFF28E70320D14B0D0010B5044630
:104C1C000068FFF7DFFE204610BD10B504460068A3
:104C2C0008B1FFF7D7FE0023C4E90133236010BDA0
:104C3C0038B504460D4600680131FFF7D3FE10B1BC
:104C4C00C4E90005012038BD10B50368044623B142
:104C5C0043688B4201D3012010BD2046FFF7E8FFCB
:104C6C000028F9D0A368002BF5D122681370F2E765
:104C7C0037B50D46114601920446FFF7E5FF019A40
:104C8C0028B92046FFF7C9FF204603B030BDA2600B
:104C9C002946206801F006FA2268A3680021D15445
:104CAC00F2E7002313B5C0E90033044683600373B5
:104CBC0041B10846019101F070FA01990246204673
:104CCC00FFF7D6FF204602B010BD884210B504464F
:104CDC0005D00B682BB18A681946FFF7C9FF20462F
:104CEC0010BDFFF79AFFFAE710B500230446C0E9A0
:104CFC00003383600373FFF7E8FF204610BD08B54F
:104D0C0082683AB921B10878B0FA80F0400900E025
:104D1C00012008BD006809B90078F5E701F016FA22
:104D2C00F2E710B50446006808B1FFF7AFFC204667
:104D3C0010BD000010B5064C002320462360FFF781
:104D4C009DFC2046034A0449BDE8104001F08EB991
:104D5C005CE7032028E703202F4D0D00F8B506462D
:104D6C000D468F180024BD420CD0336815F8011B7A
:104D7C009B6830469847031E01DB1C44F3E7002C6C
:104D8C0008BF1C462046F8BD13B50446084659B169
:104D9C00019101F002FA23680199DB680246204672
:104DAC0002B0BDE81040184702B010BD03689B6804
:104DBC00184730B58BB000238DF82430012A98BFEA
:104DCC000A2209AC0D46B1FBF2F101FB125303F0C0
:104DDC00FF03092B94BF30333733DBB2AA4204F8FC
:104DEC00013DEFD92146FFF7CFFF0BB030BD0000DE
:104DFC00014B024A1A60704760E7032098620D006D
:104E0C00024B1A68024B1A60704700BFC0E60320C1
:104E1C0064E703208A4210B507D0029C401AE41ABA
:104E2C006043521A90FBF2F0184410BD0021FFF7BA
:104E3C0025BD10B50446FFF796F9204610BD13B5F5
:104E4C000B460246D0E900016C4684E8030093E867
:104E5C00030082E8030094E8030083E8030002B037
:104E6C0010BD00000348044A04490023836001F08C
:104E7C00FDB800BF68E7032028E703203F4E0D0074
:104E8C00014B1860704700BFC4E6032008B50B4BFC
:104E9C0043B100F029FC03681B699847002801DD29
:104EAC00AFF30080064B43B100F09CFC03681B6918
:104EBC009847002801DDAFF3008008BD000000001A
:104ECC000000000008B5FFF7E1FFFFF7CFFB014B37
:104EDC00186008BDD4E703200248034A0349121A9C
:104EEC0001F0E0B800F4032004F4032020640D006A
:104EFC0007B5002300931A466FF07701FFF7E0FC2B
:104F0C0003B05DF804FB000007B543880A2B08D0FA
:104F1C00502B0BD1094B1B684BB103B05DF804EB64
:104F2C001847FFF7E5FF03B05DF804FB002300937F
:104F3C001A466FF07701FFF7C3FCF4E77CE7032018
:104F4C0038B5124C1248134D0021FFF763FD23684E
:104F5C00AB42114B0CBF012200221A7002D0FFF79A
:104F6C00BBFF2560FFF77AFB044601F0CBF80B4B37
:104F7C0013B12046AFF3008000210848FFF71AFD5B
:104F8C00BDE8384006480021FFF790BC00F4032030
:104F9C008D4E0D001E1C279A78E7032000000000A0
:104FAC00154F0D0070470020704710B510210446B6
:104FBC0001F061F8204610BD08B5FFF7F6FF08BDFB
:104FCC0030B500224FF69C74026084808D888C80F2
:104FDC000C68858004600A6030BD10B5044600681A
:104FEC00FFF7F8FC204610BD38B5C468F4B123783F
:104FFC00022B03D104F10C00FFF7EFFF656835B10C
:10500C002846FFF7B0F81021284601F034F8A568BF
:10501C0035B12846FFF7A7F81021284601F02BF8E8
:10502C0020461421BDE8384001F025B838BD10B534
:10503C0088B004466846FFF734FE694604A8FFF7BB
:10504C0053FE04A8A047044604A8FFF7DFFD6846FA
:10505C00FFF7DCFD204608B010BD1FB504466846BE
:10506C00FFF71FFEA3680BB901F00BF8E368694664
:10507C002046984704466846FFF7C8FD204604B012
:10508C0010BD1FB50023CDE90201019210241A4670
:10509C0069461846ADF80230ADF80040FFF772FCD7
:1050AC0004B010BD73B50E46044656F8043B00938D
:1050BC000D4601A83146FFF709F9019A009B626081
:1050CC00236001A8002301930093FFF7D1F8304629
:1050DC00FFF7CEF82846082100F0CDFF204602B09D
:1050EC0070BD826810B50AB900F0CBFFBDE8104066
:1050FC00C368184708B5006800F11001FFF7F1FF0D
:10510C0008BD826810B50AB900F0BBFFBDE81040BD
:10511C00C368184708B5006800F11001FFF7F1FFEC
:10512C0008BD000038B500230446036010200D466E
:10513C00FEF7A9FF28B10123C0E90133024B03603C
:10514C00C5602060204638BDC0620D0038B5002314
:10515C0083608B6804460D462BB102229847EB689E
:10516C00E360AB68A360204638BD0000F0B589B0A1
:10517C0004686846FFF724FF4FF00203D4E84F2F72
:10518C00002A03D1C4E8413F0029F7D125D104F10D
:10519C000C0569462846FFF713FFBFF35B8F01230D
:1051AC006370002004F10803BFF35B8F53E8006FBA
:1051BC0043E80002002AF9D1BFF35B8F6EB1FFF711
:1051CC0065FB78B129463046FFF78BFF3046FEF77A
:1051DC00CAFF1021304600F04EFF6846FFF7FDFE77
:1051EC0009B0F0BD314602A8FFF7B0FFE068B4F992
:1051FC00105008B100F0B4FF06901020ADF81C5010
:10520C00FEF741FF0546E8B1002787601820FEF73E
:10521C003AFF044688B10146876002A8FFF70FFEEB
:10522C00049BA268A360059B049206A9E268E36054
:10523C0004F110000592FFF7C3FE084BEB60084B1E
:10524C002C60AB6006A8FFF7C8FE02A8FEF78BFF28
:10525C00002229460348FFF721FBB7E701510D0057
:10526C0099530D0079580D002DE9F0478AB0054689
:10527C009DF848900C4617469846FFF78BFB07AEF7
:10528C00824638BB4FF62E73059005A93046ADF813
:10529C001830FFF795FE1420FEF7F5FE044648B1D2
:1052AC00022303700123C0E901AA437031460C307C
:1052BC00FFF786FE2846214640F8044BFFF732FFE5
:1052CC003046FFF78AFE05A8FFF787FE28460AB08E
:1052DC00BDE8F0870C234FF0000A1420CDE908AA92
:1052EC000793FEF7D0FE014628B1C0E901AA80F869
:1052FC0000A080F801A004A80391FFF713FF224B34
:10530C0008930820FEF7BFFE824628B1039B40F8A5
:10531C00043B04A9FEF7DAFF00965FFA89F34246D4
:10532C0039462046CDF824A0FFF73CFBB8B9039BC7
:10533C005B7803F0FF0293B94FF69C7305A903A8A1
:10534C000592ADF81830FFF711FF05A8FFF745FEE1
:10535C0005A80999FFF7A6FE06A8FEF789FF039B8F
:10536C00059304A906A8FEF7B1FF059B069A2B60CE
:10537C006A60002306A806930593FEF779FF04A83C
:10538C00FEF776FFA2E700BF5D540D00022AF8B5C8
:10539C00054607D0032A18D0012A01D10B680360F7
:1053AC000020F8BD18200E68FEF76DFE044650B1C3
:1053BC003146FFF7CBFE3069B6F9147008B100F036
:1053CC00CFFE2061A7822C60EAE70468002CE7D0AE
:1053DC0004F11000FFF701FE2046FEF7C4FE182171
:1053EC00204600F048FEDBE738B5002383608B686D
:1053FC0004460D462BB102229847EB68E360AB687C
:10540C00A360204638BD022A70B5044607D0032A93
:10541C0012D0012A01D10B680360002070BD14204A
:10542C000E68FEF730FE054620B13146FFF7DCFF73
:10543C00337C2B742560F0E70468002CEDD02046FB
:10544C00FEF791FE1421204600F015FEE5E7000062
:10545C00F0B589B004460D4601A81146FFF722FEAF
:10546C00A4B124B21DB1284600F07AFE054601A86D
:10547C0003A90395ADF81040FFF778FE03A8FFF7DA
:10548C00ACFD02A8FEF7F4FE09B0F0BD019D0123AE
:10549C00D5E84F2F002A03D1C5E8413F0029F7D1A9
:1054AC00EFD12B73BFF35B8F6B702B1DBFF35B8F37
:1054BC0053E8006F43E80042002AF9D1BFF35B8F39
:1054CC00002EDED02046FFF7E1F9074660B105F16A
:1054DC000C013046FFF715FE3046FEF744FE102156
:1054EC00304600F0C8FDCCE7314603A8FFF77CFF3F
:1054FC002B7B8DF81C301020FEF7C5FD0546D0B176
:10550C0087601420FEF7BFFD044678B18760014622
:10551C0003A8FFF794FC059BA268A360069B059269
:10552C00E268E3609DF81C3006922374064BEB6036
:10553C00064B2C60AB6003A8FEF715FE0022294633
:10554C000348FFF7ABF9C7E721510D0013540D00C9
:10555C0079580D00704710B51821044600F08BFDEA
:10556C00204610BDF0B5037D062B8DB00E4600F124
:10557C0004074FF0000412D000F1080515F8011DC6
:10558C000A223046FFF715FCAF42044419D0002C18
:10559C00F4D02E213046FFF709FC0444EEE72F230C
:1055AC006A4639460A208DF80040FFF777F86846BE
:1055BC0000F0F3FD33680246DB68694630469847D5
:1055CC00044620460DB0F0BD10B5054B0446112223
:1055DC0040F8043B002100F08DFD204610BD00BFBB
:1055EC00DC620D000346074A10B543F8042B01F1A9
:1055FC00100251F8044B43F8044B9142F9D10A784C
:10560C001A7010BDDC620D0010B59DF8084044EA1C
:10561C00032343EA024242EA016104234160037519
:10562C0010BD13B5CB7800938B784A780978FFF7C7
:10563C00EBFF02B010BD41747047704708B50021F4
:10564C00007CFFF7EBF840EAE07008BD08B50121DB
:10565C00007CFFF7E3F840EAE07008BD08B5007C79
:10566C00FFF7D4F820EAE07008BD08B5007CFFF71E
:10567C00C5F820EAE07008BD13B50446007C019122
:10568C00FFF7C4F80028019901DC607C20B1207C74
:10569C00FFF7CCF820EAE07002B010BD007CFFF7F9
:1056AC00CDB810B51421044600F0E5FC204610BD21
:1056BC0010B54FF47A73044608460021C4E901136F
:1056CC00044B23600123207463741146FFF78EF89A
:1056DC00204610BDF0620D0010B5142204460021C6
:1056EC0000F008FD204610BD10B5104C88B003A882
:1056FC00FFF7F2FF2178BFF35B8F11F0010111D19D
:10570C0020460191FEF7C7FC019958B103AA08483D
:10571C00FFF7CEFF2046FEF7C3FC064A06490448B5
:10572C0000F0A4FC024808B010BD00BF80E70320C5
:10573C0084E7032028E7032047560D007047417487
:10574C00704708B5007CFEF7E9FF20EAE07008BD61
:10575C0008B5007CFEF7BAFF20EAE07008BD08B57A
:10576C00007CFEF7C3FF40EAE07008BD08B5007C82
:10577C00FEF7B4FF40EAE07008BD007CFEF7BEBF48
:10578C0037B5457C04462DB1207C03B0BDE83040D4
:10579C00FEF794BF007C0191FEF7C0FF0028019931
:1057AC00F2DC284603B030BD10B51421044600F0DD
:1057BC0062FC204610BD000010B54FF0000C0446F2
:1057CC00084611464FF47A72C4E901C2044A2260B9
:1057DC000122207462741A46FEF768FF204610BD41
:1057EC0020630D00F7B51B4C26684EB98420FEF7DC
:1057FC004AFC054618B18422314600F07BFC25603A
:10580C00154D2F684FB98420FEF73DFC064618B1A4
:10581C008422394600F06EFC2E60104E3178BFF3B6
:10582C005B8F11F0010112D130460191FEF733FC70
:10583C00019960B122682B680948FFF7BDFF30461B
:10584C00FEF72EFC074A0849054800F00FFC0448F7
:10585C0003B0F0BD9CE70320A0E7032098E70320EA
:10586C00A4E7032028E7032049570D0010B58368EF
:10587C0004460BB900F005FCC3689847A3681BB13C
:10588C00032221462046984720461021BDE81040AF
:10589C0000F0F1BB7047F8B5064615460C468F185C
:1058AC00BC4206D0336814F8011B9B6830469847FD
:1058BC00F6E72846F8BD007C0022FEF737BF007CD7
:1058CC000021FEF73BBF007C0021FEF73FBF007CB0
:1058DC000021FEF743BF007C0021FEF747BF10B547
:1058EC001421044600F0C7FB204610BD10B54FF440
:1058FC007A73044608460021C4E90113034B236064
:10590C0020741146FEF742FF204610BD50630D0077
:10591C00002240681146FEF7F5BF00224068114690
:10592C00FFF710B8002240681146FFF71BB840681B
:10593C000022FFF70FB84068002281F00101FEF74A
:10594C00F9BF002340681A461946FEF7EBBF002347
:10595C0040681A461946FEF7DDBF00224068114622
:10596C00FEF7C0BF406800220221FEF7C3BF002330
:10597C0040681A46FEF7AEBF024B04225A60024A38
:10598C001A607047B8E7032078630D000023406865
:10599C001A46FEF79FBF406800220221FEF7AABFFD
:1059AC00002240681146FEF79DBF00224068114658
:1059BC00FEF7A8BF002340681A461946FEF7AABF97
:1059CC00002340681A461946FEF7ACBF4068002217
:1059DC0081F00101FEF7AEBF40680022FEF7BABFAE
:1059EC00002240681146FEF7BDBF002240681146F8
:1059FC00FEF7A8BF2DE9F043002495B016460D46DE
:105A0C000746FFF7E1FD214618220EA8009400F08E
:105A1C0071FB4023CDE90C3421466B460CAA304671
:105A2C00FEF7ECFD0446002846D1024601216868C9
:105A3C00FEF768FF0221804622466868FEF762FF87
:105A4C00009E81462146002E36D0002934D1736841
:105A5C00022B03D00A2B0BD0F669F4E7B8F1000F38
:105A6C0004D0716938460431FFF7DBFD4146F3E79A
:105A7C00B9F1000F01D14946EEE77469102201A873
:105A8C0000F038FB06238DF8143001AD04F1080347
:105A9C001834186859682A4603C20833A3421546BD
:105AAC00F7D101A906A807ADFFF79CFD0FCD3C1D52
:105ABC000FC42B682370DEE70098FEF797FD38467D
:105ACC0015B0BDE8F0830000024B034A1A600022B7
:105ADC005A607047C0E70320AC630D0000F110035F
:105AEC00012213F8101C0129184608D153F8041C84
:105AFC0002EB4102013A03F11003F2D17047022983
:105B0C0004BF53F8041C5218F4E770470020704788
:105B1C0010B51021044600F0AEFA204610BD08B5B1
:105B2C00FFF7F6FF08BD10B5C4687CB1206808B15A
:105B3C00FEF7AFFA237A1BB1606808B1FEF7A9FA39
:105B4C0020460C21BDE8104000F095BA10BD10B5F0
:105B5C00036804469B689847A368013BA3602BB974
:105B6C0023682046DB68BDE81040184710BD38B5E7
:105B7C000B6803604D6843689D4204460CD015B118
:105B8C006B6801336B60606828B14368013B43600C
:105B9C000BB9FFF7DCFF6560204638BD0B4611469C
:105BAC00002210B5C0E90022044683600BB92046E0
:105BBC0010BDFFF7DCFFFAE72DE9F04786B007468A
:105BCC00884602A80021002499461023924602938D
:105BDC00FEF73CFECDE9004423464246394602A876
:105BEC00FEF73CFE061E1EDD1049300100F047FAA0
:105BFC00054690B1214602A8FEF728FECDE90064C7
:105C0C002B464246394602A8FEF728FEA04207DD85
:105C1C00CAF800500120C9F8006006B0BDE8F08752
:105C2C002846FEF736FA2046F7E700BFF4630D006E
:105C3C002DE9F84F436886680B4488460E440746A6
:105C4C001C4619464FF00D094FF0090AB44263D0B7
:105C5C00254615F8012B5C2A2BD1A14207D0A4EBC9
:105C6C00010B18465A4600F02BFA03465B44B5422A
:105C7C0039D06278752A2AD1A21CB21A032A32DDD5
:105C8C00A01D04F1050E4FF0000CAE4553D015F8D5
:105C9C00011FA1F130025FFA82FBBBF1090F05D99C
:105CAC00A1F16102052A07D8A1F1570242EA0C1CA6
:105CBC00EBE728460446C9E7A1F14102052A12D8B0
:105CCC00A1F13702F2E703F801CB0146F2E76E2AA5
:105CDC001CD00ED8622A13D007D82F2A11D05C2AD8
:105CEC000FD0222A0DD0002023E0662AFBD10C22F3
:105CFC0007E0722A0DD0742AF5D183F800A001E0D8
:105D0C0008221A70A11C01330846D3E74FF00A028F
:105D1C00F7E783F80090F5E7A14206D0641A18461D
:105D2C00224600F0CDF903462344A3EB0803BB60E5
:105D3C000120BDE8F88FBCF17F0FC4D92146B9E72B
:105D4C00F8B50446154600EB01160027B44210D0F6
:105D5C002378032B08D129462046FFF769FF48B169
:105D6C00A368EF541034F1E7002BFBD1A268AB54BD
:105D7C00F8E70120F8BD000038B50023C0E9003376
:105D8C0004460E48C4E90203A9B10B78032B06D0D4
:105D9C008BB9136858684B68C35C6E2B07D01368BB
:105DAC004D6858688B6828445B1BA060E360114603
:105DBC002046FFF7DCFE204638BD00BF4D620D00CB
:105DCC0038B500250B46C0E90055C0E90255C0E9BD
:105DDC000455044611464BB11A78012A06D103F139
:105DEC001002DB6882604361FFF7C1FE204638BDBC
:105DFC0010B54369044663B18068E060013B103024
:105E0C00A0602061636113B1FFF768FEA060012000
:105E1C0000E0184610BD000038B5002304460360AE
:105E2C0010200D46FEF72FF928B10123C0E90133EC
:105E3C00024B0360C5602060204638BDE0630D0056
:105E4C00F0B5044687B00E460C202749154600F0E5
:105E5C0014F9014618B10023C0E90033037203A8FA
:105E6C000291FFF7D9FF029A42B9C4E90022A2605D
:105E7C0003A8FEF7FDF9204607B0F0BD00230193FF
:105E8C00294601AB3046FFF797FE18B9C4E900006C
:105E9C00A060EDE71449029F681C00F0F0F8029B2B
:105EAC00786058680028F1D02A46314600F0FAF89C
:105EBC00029B0199186801221A725A68FFF740FF79
:105ECC000028E3D0029B19680493039B059313B13C
:105EDC005A6801325A6004AA2046FFF75FFE05A8F3
:105EEC00FEF7C6F9C4E700BFF4630D00232813B511
:105EFC0002D9002002B010BDA0F10B03022B1AD85E
:105F0C00174C2178BFF35B8F11F001010BD12046A8
:105F1C000191FEF7C0F8019928B11248FEF7C0FDB7
:105F2C002046FEF7BDF80F4B1878FEF73FFC002813
:105F3C00DFD10120DEE7012809D800F06FF800213D
:105F4C00007CFEF71BFC80F00100C0B2D2E70938E0
:105F5C000128EED8FFF746FC007CFEF7D7FBF2E7F2
:105F6C00C8E70320CCE70320232838B504460D46A8
:105F7C000AD8FF2908D0FFF7B9FF28B129462046D7
:105F8C00BDE83840FEF74ABB38BD38B504460D466F
:105F9C00FEF74CFBFF2810D0062804D84D2323FA1B
:105FAC0000F0C30709D42046FFF7A0FF28B129460B
:105FBC002046BDE83840FEF741BB38BD0D2810B572
:105FCC0004469CBF0E34A4B22046FFF78FFF50B19D
:105FDC0003212046FEF71AFB032804D12046BDE816
:105FEC001040FEF733BB002010BD000038B5002375
:105FFC0020254380142304460380856005610649EF
:10600C00284600F03CF804496060284600F037F858
:10601C00E060204638BD00BFF4630D0030B50F4D75
:10602C002978BFF35B8F11F0010487B013D1284698
:10603C00FEF731F878B101A8FFF7D8FF01AA214685
:10604C000748FFF753FC2846FEF72AF8054A06498D
:10605C00034800F00BF8024807B030BDD8E7032026
:10606C00DCE7032028E70320A1580D000B4601466E
:10607C00184600F009B8FEF70AB8FEF704B8FEF7A8
:10608C0004B808B5FEF7B6FC10B5054C13462CB198
:10609C000A4601460220AFF3008010BD2046FCE703
:1060AC00000000000A44914200F1FF3300D1704718
:1060BC0010B511F8014B03F8014F9142F9D110BD05
:1060CC00884210B501EB020402D98442234607D85A
:1060DC00431EA14208D011F8012B03F8012FF8E759
:1060EC00024401468A4200D110BD13F8014D02F85A
:1060FC00014DF7E702440346934200D1704703F881
:10610C00011BF9E738B50D4B1D68AB6B04467BB929
:10611C001820FEF757FC0A4A0A4BA863C0E9002373
:10612C00094B83600B23838101220023C0E90423E4
:10613C00AB6B00221C615A6138BD00BFC4E6032062
:10614C000E33CDAB34126DE6ECDE050010F8012BEE
:10615C0011F8013B012A28BF9A42F7D0D01A704798
:10616C00024B0146186800F003B800BFC4E60320D8
:10617C0037B5044608460D4600F00FF8421C114690
:10618C0020460192FEF73EFC044618B1019A2946BE
:10619C00FFF788FF204603B030BD034613F8012BF0
:1061AC00002AFBD1181A0138704700001D400D0061
:1061BC0059400D0081400D0085400D00000000008D
:1061CC006D61737465725F636F6D6D616E64006198
:1061DC0070705F726571756573740073656E736F43
:1061EC007200616E616C6F6776616C7565006163DE
:1061FC006365737300416363657074006C6F636BEC
:10620C005F686F6F6B00646F6F72206973206F70C3
:10621C00656E00646F6F7220697320636C6F7365B9
:10622C006400646F6F7220697320616C72656164C5
:10623C0079206F70656E002D320044656E79002DEB
:10624C0031006D617374657220636F6D6D616E6486
:10625C00206572726F7200000000000000000000E8
:10626C008F4A0D00854A0D007B4A0D00714A0D00C6
:10627C00654A0D00594A0D004D4A0D00454A0D0066
:10628C003B4A0D00314A0D00015A0D00617070003F
:10629C0025592D256D2D25645425483A254D3A2533
:1062AC0053257A0061736374696D6500000000000A
:1062BC0000000000B14F0D00B74F0D00F54F0D0061
:1062CC00C54F0D00B34F0D00000000000000000092
:1062DC0071550D0061550D0063550D000000000057
:1062EC000000000047560D00AF560D0085560D00FE
:1062FC00694D0D0077560D0049560D0059560D008D
:10630C00A9560D0069560D0043560D000000000003
:10631C000000000049570D00B5570D008D570D00BA
:10632C00694D0D005D570D0079570D006B570D0031
:10633C0087570D004B570D004F570D000000000004
:10634C0000000000A1580D00EB580D00C3580D00C3
:10635C00A3580D00CB580D00D3580D00DB580D0081
:10636C00E3580D0000000000000000007B590D00F8
:10637C0071590D0067590D001D590D005B590D0029
:10638C004F590D0043590D003B590D0031590D006B
:10639C0027590D00015A0D000000000000000000FC
:1063AC0099590D00A3590D00AD590D00B7590D00A9
:1063BC00C1590D00CD590D00D9590D00E5590D00ED
:1063CC00ED590D00F7590D00015A0D0000000000A9
:1063DC0000000000175B0D001D5B0D00335B0D0012
:1063EC002B5B0D00195B0D0000000000C9450D0072
:1063FC00994A0D00DD4B0D00414D0D00FD4D0D007A
:10640C000D4E0D00714E0D0085590D00D55A0D0025
:04641C00000000007C
:046420000000000078
:106424000400000003000000130000000E00000040
:1064340006000000B0620D00C8E603200000000062
:106444000000000000000000000000000000000048
:106454000000000000000000000000000000000038
:106464000000000000000000000000000000000028
:106474000000000000000000000000000000000018
:106484000000000000000000000000000000000008
:0C649400000000000000000000000000FC
:1064A000FFFFFFFF00000102030405060708090AB9
:1064B0000B0C0D0E0F101112131415161718191AB4
:0864C0001B1C1D1E1F202800FB
:0464C80078563412BC
:04000003D000401CCD
:00000001FF
