:02000002D0002C
:1040000000400D003C640D00000006000C0005019E
:084010000401D70700000000C5
:04401800A4600D0093
:10401C0009480A49884208B505D0094A824202D0AB
:10402C00121A01F0B5FF0748074A0021121A01F0D5
:10403C00D7FF014808BD00BFC4E50320A4630D00F1
:10404C0034E6032034E60320F0E7032070B5074E76
:10405C00074C00F005FFA41BA4080025A54200D1C5
:10406C0070BD56F8043B98470135F7E770630D00B7
:10407C0094630D0000F05AB808B500F0B1F8BDE833
:10408C00084000F0AFBE00F0B7BC00F0B5BC00F0CB
:10409C00BBBC00F0B9BC0078B0FA80F040097047A6
:1040AC00012303707047036808681847012A03D07E
:1040BC00022A03D0002070470160FBE70B68036005
:1040CC00F8E7000070B5064610200D46FFF7DBFF41
:1040DC00044688B100238360AB6833B102222946C1
:1040EC009847EB68E360AB68A3603246214603480F
:1040FC00BDE8704000F055BF70BD00BF874F0D008C
:10410C0037B59DF818501D438DF800503C230446DC
:10411C0001F03AF8204603B030BD10B58368044670
:10412C0013B1032201469847204610BD30B51D4CF3
:10413C001D4D208885B0012101F08CFE20881B4C80
:10414C00002101F098FE1A4B0221188801F082FE22
:10415C00184919480023022200F026FC00231749B5
:10416C001748022200F020FC164A1749174800F0A5
:10417C0018FF174B17480093694603950294FFF7F5
:10418C00A1FF6846FFF7C9FF134B1448009369461B
:10419C00CDE90245FFF796FF6846FFF7BEFF05B075
:1041AC0030BD00BFC4E50320B3400D00B9400D0085
:1041BC00C8E503203CE60320B8600D0040E6032070
:1041CC00C7600D00D4600D0045420D005B4F0D0023
:1041DC0019430D00E2600D0029450D00EB600D0048
:1041EC0008B5064B188801F05FFE054B1860054BAF
:1041FC00188801F059FE044B186008BDC4E5032073
:10420C003CE60320C8E5032040E6032038B50468EB
:10421C0005467CB16368013B63605BB9236820464B
:10422C009B689847A368013BA3601BB92368204691
:10423C00DB689847284638BD7FB51F491F4D064699
:10424C0000F0F9FC044690B11D4B0121188801F0D7
:10425C0012FE00222B781B498DF8002002A8FFF7D4
:10426C004FFF03A8FFF7D2FF012004B070BD164921
:10427C00304600F0E0FC024688B1114B214618880C
:10428C0001F0F9FD2B7811498DF80040224602A867
:10429C00FFF736FF03A8FFF7B9FF2046E5E72B78B9
:1042AC000B498DF8000002A8FFF72AFF03A8FFF7BF
:1042BC00ADFF4FF0FF30D8E7F3600D0038E6032078
:1042CC00C4E50320F6600D0009610D000D610D00C1
:1042DC0022610D000B68036013B15A6801325A60F9
:1042EC00704737B58D6851F8043B0093044601A81C
:1042FC00FFF7F0FF6A462946204601F0D7FC01A8DB
:10430C00FFF784FF204603B030BD00002DE9F043D9
:10431C0099B0744D039001F0B6FE0399024604A8BF
:10432C0001F004FD04A912A8FFF7DBFF12A801F0AD
:10433C00D5FC002800F0D280169C129B0E9313A97A
:10434C000FA8FFF7C7FF0EAA214607A801F09CFB98
:10435C000FA8FFF75BFF099C079B0A9308A90BA802
:10436C00FFF7B8FF0AAA21460EA801F07BFC0BA8A8
:10437C00FFF74CFF10990AA800F02FFC0FA8FFF7CD
:10438C0045FF08A8FFF742FF159C129B079313A942
:10439C0008A8FFF79FFF214607AA0EA801F062FCB0
:1043AC0008A8FFF733FF1098294601F045FE044694
:1043BC000FA8FFF72BFF002C40F08C804A494B4D87
:1043CC000AA800F038FC002858D08DF800402B7853
:1043DC00474A4849DFF83881474F0EA8FFF790FE4F
:1043EC000FA8FFF713FF8DF800402B7843492246A6
:1043FC000EA8FFF785FE0FA8FFF708FF0121B8F8FC
:10440C00000001F038FD42F2107000F09FFC38887B
:10441C0001F04AFD3A4B31281860C1461E461DDD9D
:10442C00B8F80000214601F026FD8DF800402B78ED
:10443C00224634490EA8FFF763FE0FA8FFF7E6FEED
:10444C0001240AA800F07EFB13A8FFF7DFFE05A8E5
:10445C00FFF7DCFE204619B0BDE8F083388801F088
:10446C0023FD32283060F9DDB9F80000002101F09D
:10447C0002FD00228DF800202B78DAE722490AA8E9
:10448C0000F0D9FB8DF800402B7868B11F4A194910
:10449C000EA8FFF735FE0FA8FFF7B8FE1C4B214600
:1044AC00188801F0E8FCCCE71A4A12490EA8FFF76D
:1044BC0027FE0FA8FFF7AAFE8DF800402B780A9A6A
:1044CC0015490EA8FFF71CFE0FA8FFF79FFE4FF033
:1044DC00FF34B6E70AA800F035FB27E76FF00104BC
:1044EC00B2E700BFB5610D003C610D0038E603205A
:1044FC0035610D0042610D00C8E503204C610D00D3
:10450C0040E6032059610D006F610D0068610D00DC
:10451C00C4E5032074610D008A610D0030B599B0BB
:10452C00424D039001F0AFFD0399024604A801F03F
:10453C00FDFB04A912A8FFF7D4FE12A801F0CEFBD4
:10454C0000286FD0169C129B0E9313A90FA8FFF78F
:10455C00C1FE0EAA214607A801F096FA0FA8FFF794
:10456C0055FE099C079B0A9308A90BA8FFF7B2FEFE
:10457C000AAA21460EA801F075FB0BA8FFF746FE10
:10458C0010990AA800F029FB0FA8FFF73FFE08A816
:10459C00FFF73CFE159C129B079313A908A8FFF785
:1045AC0099FE214607AA0EA801F05CFB08A8FFF7AC
:1045BC002DFE1098294601F03FFD04460FA8FFF789
:1045CC0025FE5CBB1A490AA800F035FB194BB8B1A3
:1045DC008DF800401B78184A18490EA8FFF790FD7B
:1045EC000FA8FFF713FE01240AA800F0ABFA13A8DA
:1045FC00FFF70CFE05A8FFF709FE204619B030BDE9
:10460C008DF800001B780A9A0D490EA8FFF778FD6B
:10461C000FA8FFF7FBFD4FF0FF34E5E70AA800F009
:10462C0091FA8AE76FF00104E1E700BFB5610D0074
:10463C009F610D0038E60320A7610D00BC610D00E1
:10464C00C6610D00014B01221A70704738E6032039
:10465C0008B5024B1B689B68019308BD68020300F8
:10466C0008B5024B1B68DB68019308BD68020300A8
:10467C0008B5024B1B685B68019308BD2C02030054
:10468C0008B5024B1B689B68019308BD2C02030004
:10469C0008B5024B1B68DB68019308BD2C020300B4
:1046AC0008B5024B1B681B69019308BD2C02030063
:1046BC0008B5024B1B681B6B019308BD2C02030051
:1046CC0008B5024B1B685B68019308BD1802030018
:1046DC0008B5024B1B685B69019308BD1802030007
:1046EC0008B5024B1B685B6C019308BD48020300C4
:1046FC0008B5024B1B689B6C019308BD4802030074
:10470C0008B5024B1B685B69019308BD640203008A
:10471C0008B5024B1B681B68019308BD3C020300E3
:10472C0008B5024B1B68DB68019308BD3C02030013
:10473C0008B5024B1B681B69019308BD3C020300C2
:10474C0008B5024B1B685B69019308BD3C02030072
:10475C0008B5024B1B689B69019308BD3C02030022
:10476C0008B5024B1B68DB69019308BD3C020300D2
:10477C0008B5024B1B681B6A019308BD3C02030081
:10478C0008B5024B1B689B6A019308BD3C020300F1
:10479C0008B5024B1B681B6A019308BD2802030075
:1047AC0008B5024B1B685B6A019308BD2802030025
:1047BC0008B5024B1B689B6A019308BD28020300D5
:1047CC0008B5024B1B68DB6A019308BD2802030085
:1047DC0008B5024B1B681B6B019308BD2802030034
:1047EC0008B5024B1B685B6B019308BD28020300E4
:1047FC0008B5024B1B681B6C019308BD2802030013
:10480C0008B5024B1B68DB69019308BD300203003D
:10481C0008B5024B1B681B6A019308BD30020300EC
:10482C0008B5024B1B681B68019308BD4C020300C2
:10483C0008B5024B1B681B69019308BD4C020300B1
:10484C0008B5024B1B685B69019308BD4C02030061
:10485C0008B5024B1B689B69019308BD4C02030011
:10486C0008B5024B1B68DB69019308BD4C020300C1
:10487C0008B5024B1B681B6A019308BD4C02030070
:10488C0008B5024B1B689B6B019308BD60020300CB
:10489C0008B5024B1B68DB6B019308BD600203007B
:1048AC0008B5024B1B685B68019308BD200203002E
:1048BC0008B5024B1B685B69019308BD200203001D
:1048CC0008B5024B1B68DB6C019308BD200203008A
:1048DC0008B5024B1B685B6D019308BD20020300F9
:1048EC0008B5034B1B68D3F88830019308BD000052
:1048FC002002030008B5034B1B68D3F894300193D6
:10490C0008BD00002002030008B5024B1B685B6861
:10491C00019308BD4002030008B5024B1B689B685D
:10492C00019308BD4002030008B5024B1B68DB680D
:10493C00019308BD4002030008B5024B1B681B69BC
:10494C00019308BD4002030008B5024B1B685B696C
:10495C00019308BD4002030008B5024B1B689B691C
:10496C00019308BD4002030008B5024B1B68DB69CC
:10497C00019308BD4002030008B5024B1B681B6A7B
:10498C00019308BD4002030008B5024B1B681B6B6A
:10499C00019308BD4002030008B5024B1B685B6B1A
:1049AC00019308BD4002030008B5024B1B681B684D
:1049BC00019308BD4402030008B5024B1B685B68F9
:1049CC00019308BD4402030008B5024B1B685B69E8
:1049DC00019308BD4402030008B5024B1B681B6A17
:1049EC00019308BD4402030008B5024B1B68DB6B46
:1049FC00019308BD4402030008B5024B1B681B68F9
:104A0C00019308BD1C02030008B5024B1B685B68D0
:104A1C00019308BD1C02030008B5024B1B689B6880
:104A2C00019308BD1C02030008B5024B1B68DB6A2E
:104A3C00019308BD1C02030008B5024B1B681B6BDD
:104A4C00019308BD1C02030008B5024B1B685B6C8C
:104A5C00019308BD1C020300002240681146FFF7B9
:104A6C008BBF002240681146FFF796BF40680022BA
:104A7C00FFF78ABF4068002281F00101FFF774BF85
:104A8C00002340681A461946FFF766BF00234068AA
:104A9C001A461946FFF758BF002240681146FFF727
:104AAC004BBF002240681146FFF736BF406800221A
:104ABC000221FFF739BF002340681A46FFF724BFD5
:104ACC00024B03225A60024A1A60704744E60320E4
:104ADC00E4610D0010B5044608462170FFF790FE06
:104AEC0000236360204610BD10B50446006818B161
:104AFC00FFF78AFF0023236010BD10B50446FFF7B3
:104B0C00F3FF204610BD000010B5094B094C0222E2
:104B1C0000201A60084B2060A080A071A360FFF7F2
:104B2C00BFFE2046054A0649BDE8104001F014BA04
:104B3C0058E603204CE603200000FFFF34E6032078
:104B4C00074B0D0010B504460068FFF75DFF2046CB
:104B5C0010BD10B50446006808B1FFF755FF0023DF
:104B6C00C4E90133236010BD38B504460D46006816
:104B7C000131FFF751FF10B1C4E90005012038BD28
:104B8C0010B50368044623B143688B4201D301205E
:104B9C0010BD2046FFF7E8FF0028F9D0A368002BD2
:104BAC00F5D122681370F2E737B50D461146019224
:104BBC000446FFF7E5FF019A28B92046FFF7C9FF25
:104BCC00204603B030BDA2602946206801F0E0F910
:104BDC002268A3680021D154F2E7002313B5C0E981
:104BEC00003304468360037341B10846019101F020
:104BFC004AFA019902462046FFF7D6FF204602B03A
:104C0C0010BD884210B5044605D00B682BB18A68DC
:104C1C001946FFF7C9FF204610BDFFF79AFFFAE7C8
:104C2C0010B500230446C0E9003383600373FFF71B
:104C3C00E8FF204610BD08B582683AB921B1087862
:104C4C00B0FA80F0400900E0012008BD006809B905
:104C5C000078F5E701F0F0F9F2E710B504460068CA
:104C6C0008B1FFF745FD204610BD000010B5064CFD
:104C7C00002320462360FFF733FD2046034A0449F6
:104C8C00BDE8104001F068B95CE6032034E603206F
:104C9C00674C0D00F8B506460D468F180024BD4232
:104CAC000CD0336815F8011B9B6830469847031EDF
:104CBC0001DB1C44F3E7002C08BF1C462046F8BD62
:104CCC0013B50446084659B1019101F0DCF923688B
:104CDC000199DB680246204602B0BDE81040184737
:104CEC0002B010BD03689B68184730B58BB0002329
:104CFC008DF82430012A98BF0A2209AC0D46B1FB6D
:104D0C00F2F101FB125303F0FF03092B94BF303374
:104D1C003733DBB2AA4204F8013DEFD92146FFF745
:104D2C00CFFF0BB030BD0000014B024A1A60704738
:104D3C0060E6032010620D00024B1A68024B1A60E9
:104D4C00704700BFCCE5032064E603200021FFF789
:104D5C00AFBD10B50446FFF7E0F9204610BD13B502
:104D6C000B460246D0E900016C4684E8030093E848
:104D7C00030082E8030094E8030083E8030002B018
:104D8C0010BD00000348044A04490023836001F06D
:104D9C00E3B800BF68E6032034E603205F4D0D0046
:104DAC00014B1860704700BFD0E5032008B50B4BD2
:104DBC0043B100F029FC03681B699847002801DD0A
:104DCC00AFF30080064B43B100F09CFC03681B69F9
:104DDC009847002801DDAFF3008008BD00000000FB
:104DEC000000000008B5FFF7E1FFFFF771FC014B75
:104DFC00186008BDD4E703200248034A0349121A7D
:104E0C0001F0C6B800F4032004F40320A0630D00E5
:104E1C0007B5002300931A466FF07701FFF76AFD80
:104E2C0003B05DF804FB000007B543880A2B08D0DB
:104E3C00502B0BD1094B1B684BB103B05DF804EB45
:104E4C001847FFF7E5FF03B05DF804FB0023009360
:104E5C001A466FF07701FFF74DFDF4E77CE603206F
:104E6C0038B5124C1248134D0021FFF7EDFD2368A5
:104E7C00AB42114B0CBF012200221A7002D0FFF77B
:104E8C00BBFF2560FFF71CFC044601F0B1F80B4B8F
:104E9C0013B12046AFF3008000210848FFF7A4FDB2
:104EAC00BDE8384006480021FFF71ABD00F4032086
:104EBC00AD4D0D001E1C279A78E603200000000063
:104ECC00354E0D0070470020704710B51021044678
:104EDC0001F047F8204610BD08B5FFF7F6FF08BDF6
:104EEC0030B500224FF69C74026084808D888C80D3
:104EFC000C68858004600A6030BD10B504460068FB
:104F0C00FFF782FD204610BD38B5C468F4B1237894
:104F1C00022B03D104F10C00FFF7EFFF656835B1EC
:104F2C002846FFF7FAF81021284601F01AF8A56870
:104F3C0035B12846FFF7F1F81021284601F011F899
:104F4C0020461421BDE8384001F00BB838BD10B52F
:104F5C0088B004466846FFF740FE694604A8FFF790
:104F6C005FFE04A8A047044604A8FFF7EBFD6846C3
:104F7C00FFF7E8FD204608B010BD1FB50446684693
:104F8C00FFF72BFEA3680BB900F0F1FFE36869464D
:104F9C002046984704466846FFF7D4FD204604B0E7
:104FAC0010BD1FB50023CDE90201019210241A4651
:104FBC0069461846ADF80230ADF80040FFF7FCFC2E
:104FCC0004B010BD73B50E46044656F8043B00936E
:104FDC000D4601A83146FFF77DF9019A009B6260EE
:104FEC00236001A8002301930093FFF70FF93046CB
:104FFC00FFF70CF92846082100F0B3FF204602B059
:10500C0070BD826810B50AB900F0B1FFBDE8104060
:10501C00C368184708B5006800F11001FFF7F1FFED
:10502C0008BD826810B50AB900F0A1FFBDE81040B8
:10503C00C368184708B5006800F11001FFF7F1FFCD
:10504C0008BD000038B500230446036010200D464F
:10505C00FFF719F828B10123C0E90133024B0360B3
:10506C00C5602060204638BD38620D0038B500237D
:10507C0083608B6804460D462BB102229847EB687F
:10508C00E360AB68A360204638BD0000F0B589B082
:10509C0004686846FFF724FF4FF00203D4E84F2F53
:1050AC00002A03D1C4E8413F0029F7D125D104F1EE
:1050BC000C0569462846FFF713FFBFF35B8F0123EE
:1050CC006370002004F10803BFF35B8F53E8006F9B
:1050DC0043E80002002AF9D1BFF35B8F6EB1FFF7F2
:1050EC00EFFB78B129463046FFF78BFF3046FFF7D0
:1050FC0014F81021304600F034FF6846FFF7FDFE2F
:10510C0009B0F0BD314602A8FFF7B0FFE068B4F972
:10511C00105008B100F09AFF06901020ADF81C500A
:10512C00FEF7B1FF0546E8B1002787601820FEF7AF
:10513C00AAFF044688B10146876002A8FFF70FFE5C
:10514C00049BA268A360059B049206A9E268E36035
:10515C0004F110000592FFF7C3FE084BEB60084BFF
:10516C002C60AB6006A8FFF7C8FE02A8FEF7D5FFBF
:10517C00002229460348FFF7ABFBB7E721500D008F
:10518C00B9520D0065570D002DE9F0478AB0054660
:10519C009DF848900C4617469846FFF715FC07AE4D
:1051AC00824638BB4FF62E73059005A93046ADF8F4
:1051BC001830FFF795FE1420FEF765FF044648B142
:1051CC00022303700123C0E901AA437031460C305D
:1051DC00FFF786FE2846214640F8044BFFF732FFC6
:1051EC003046FFF78AFE05A8FFF787FE28460AB06F
:1051FC00BDE8F0870C234FF0000A1420CDE908AA73
:10520C000793FEF740FF014628B1C0E901AA80F8D8
:10521C0000A080F801A004A80391FFF713FF224B14
:10522C0008930820FEF72FFF824628B1039B40F815
:10523C00043B04A9FFF74EF800965FFA89F3424647
:10524C0039462046CDF824A0FFF7C6FBB8B9039B1E
:10525C005B7803F0FF0293B94FF69C7305A903A882
:10526C000592ADF81830FFF711FF05A8FFF745FEC2
:10527C0005A80999FFF7A6FE06A8FEF7C7FF039B32
:10528C00059304A906A8FFF725F8059B069A2B6041
:10529C006A60002306A806930593FEF7B7FF04A8DF
:1052AC00FEF7B4FFA2E700BF7D530D00022AF8B54C
:1052BC00054607D0032A18D0012A01D10B680360D8
:1052CC000020F8BD18200E68FEF7DDFE044650B134
:1052DC003146FFF7CBFE3069B6F9147008B100F017
:1052EC00B5FE2061A7822C60EAE70468002CE7D0A9
:1052FC0004F11000FFF701FE2046FEF70EFF182107
:10530C00204600F02EFEDBE738B5002383608B6867
:10531C0004460D462BB102229847EB68E360AB685C
:10532C00A360204638BD022A70B5044607D0032A74
:10533C0012D0012A01D10B680360002070BD14202B
:10534C000E68FEF7A0FE054620B13146FFF7DCFFE4
:10535C00337C2B742560F0E70468002CEDD02046DC
:10536C00FEF7DBFE1421204600F0FBFDE5E7000014
:10537C00F0B589B004460D4601A81146FFF722FE90
:10538C00A4B124B21DB1284600F060FE054601A868
:10539C0003A90395ADF81040FFF778FE03A8FFF7BB
:1053AC00ACFD02A8FEF732FF09B0F0BD019D012350
:1053BC00D5E84F2F002A03D1C5E8413F0029F7D18A
:1053CC00EFD12B73BFF35B8F6B702B1DBFF35B8F18
:1053DC0053E8006F43E80042002AF9D1BFF35B8F1A
:1053EC00002EDED02046FFF76BFA074660B105F1C0
:1053FC000C013046FFF715FE3046FEF78EFE1021ED
:10540C00304600F0AEFDCCE7314603A8FFF77CFF39
:10541C002B7B8DF81C301020FEF735FE0546D0B1E5
:10542C0087601420FEF72FFE044678B18760014692
:10543C0003A8FFF794FC059BA268A360069B05924A
:10544C00E268E3609DF81C3006922374064BEB6017
:10545C00064B2C60AB6003A8FEF75FFE00222946CA
:10546C000348FFF735FAC7E741500D0033530D00E1
:10547C0065570D00704710B51821044600F071FDFA
:10548C00204610BDF0B5037D062B8DB00E4600F105
:10549C0004074FF0000412D000F1080515F8011DA7
:1054AC000A223046FFF721FCAF42044419D0002CED
:1054BC00F4D02E213046FFF715FC0444EEE72F23E1
:1054CC006A4639460A208DF80040FFF719F96846FC
:1054DC0000F0D9FD33680246DB68694630469847D0
:1054EC00044620460DB0F0BD10B5054B0446112204
:1054FC0040F8043B002100F073FD204610BD00BFB6
:10550C0054620D000346074A10B543F8042B01F111
:10551C00100251F8044B43F8044B9142F9D10A782C
:10552C001A7010BD54620D0010B59DF8084044EA85
:10553C00032343EA024242EA0161042341600375FA
:10554C0010BD13B5CB7800938B784A780978FFF7A8
:10555C00EBFF02B010BD41747047704708B50021D5
:10556C00007CFFF775F940EAE07008BD08B5012131
:10557C00007CFFF76DF940EAE07008BD08B5007CCF
:10558C00FFF75EF920EAE07008BD08B5007CFFF774
:10559C004FF920EAE07008BD13B50446007C019178
:1055AC00FFF74EF90028019901DC607C20B1207CCA
:1055BC00FFF756F920EAE07002B010BD007CFFF74F
:1055CC0057B910B51421044600F0CBFC204610BD91
:1055DC0010B54FF47A73044608460021C4E9011350
:1055EC00044B23600123207463741146FFF718F9F0
:1055FC00204610BD68620D0010B51422044600212F
:10560C0000F0EEFC204610BD10B5104C88B003A87D
:10561C00FFF7F2FF2178BFF35B8F11F0010111D17D
:10562C0020460191FEF737FD019958B103AA0848AD
:10563C00FFF7CEFF2046FEF733FD064A0649044825
:10564C0000F08AFC024808B010BD00BF80E60320C1
:10565C0084E6032034E6032067550D00704741743F
:10566C00704708B5007CFFF78BF820EAE07008BDA6
:10567C0008B5007CFFF75CF820EAE07008BD08B5BF
:10568C00007CFFF765F840EAE07008BD08B5007CC7
:10569C00FFF756F840EAE07008BD007CFFF760B8F1
:1056AC0037B5457C04462DB1207C03B0BDE83040B5
:1056BC00FFF736B8007C0191FFF762F800280199DA
:1056CC00F2DC284603B030BD10B51421044600F0BE
:1056DC0048FC204610BD000010B54FF0000C0446ED
:1056EC00084611464FF47A72C4E901C2044A22609A
:1056FC000122207462741A46FFF70AF8204610BD86
:10570C0098620D0013B50E4C2178BFF35B8F11F02E
:10571C00010112D120460191FEF7BDFC019960B147
:10572C00084A094B0948FFF7D7FF2046FEF7B8FC9B
:10573C00074A0849054800F00FFC044802B010BDA8
:10574C0098E603209CE6032020E70320A4E703202F
:10575C0034E6032069560D0010B5836804460BB976
:10576C0000F005FCC3689847A3681BB103222146CF
:10577C002046984720461021BDE8104000F0F1BBB0
:10578C007047F8B5064615460C468F18BC4206D035
:10579C00336814F8011B9B6830469847F6E7284697
:1057AC00F8BD007C0022FEF7F3BF007C0021FEF761
:1057BC00F7BF007C0021FEF7FBBF007C0021FEF749
:1057CC00FFBF007C0021FFF703B810B5142104467D
:1057DC0000F0C7FB204610BD10B54FF47A73044699
:1057EC0008460021C4E90113034B236020741146C1
:1057FC00FEF7FEFF204610BDC8620D000022406877
:10580C001146FFF799B8002240681146FFF7B4B86B
:10581C00002240681146FFF7BFB840680022FFF72E
:10582C00B3B84068002281F00101FFF79DB8002356
:10583C0040681A461946FFF78FB8002340681A468D
:10584C001946FFF781B8002240681146FFF764B88B
:10585C00406800220221FFF767B8002340681A460F
:10586C00FFF752B8024B04225A60024A1A60704782
:10587C00B8E70320F0620D00002340681A46FFF7DA
:10588C0043B8406800220221FFF74EB8002240685E
:10589C001146FFF741B8002240681146FFF74CB89B
:1058AC00002340681A461946FFF74EB8002340689B
:1058BC001A461946FFF750B84068002281F00101E2
:1058CC00FFF752B840680022FFF75EB8002240682C
:1058DC001146FFF761B8002240681146FFF74CB83B
:1058EC002DE9F043002495B016460D460746FFF708
:1058FC00FBFD214618220EA8009400F071FB4023FA
:10590C00CDE90C3421466B460CAA3046FEF7A8FEB6
:10591C000446002846D1024601216868FFF70CF8BE
:10592C000221804622466868FFF706F8009E8146F1
:10593C002146002E36D0002934D17368022B03D0B7
:10594C000A2B0BD0F669F4E7B8F1000F04D071699B
:10595C0038460431FFF7F5FD4146F3E7B9F1000F86
:10596C0001D14946EEE77469102201A800F038FB1A
:10597C0006238DF8143001AD04F1080318341868AF
:10598C0059682A4603C20833A3421546F7D101A928
:10599C0006A807ADFFF7B6FD0FCD3C1D0FC42B6855
:1059AC002370DEE70098FEF753FE384615B0BDE8CD
:1059BC00F0830000024B034A1A6000225A607047C1
:1059CC00C0E7032024630D0000F11003012213F83B
:1059DC00101C0129184608D153F8041C02EB410293
:1059EC00013A03F11003F2D17047022904BF53F8B6
:1059FC00041C5218F4E770470020704710B51021B2
:105A0C00044600F0AEFA204610BD08B5FFF7F6FFCD
:105A1C0008BD10B5C4687CB1206808B1FEF739FB2D
:105A2C00237A1BB1606808B1FEF733FB20460C21CA
:105A3C00BDE8104000F095BA10BD10B503680446DF
:105A4C009B689847A368013BA3602BB92368204649
:105A5C00DB68BDE81040184710BD38B50B68036013
:105A6C004D6843689D4204460CD015B16B680133F8
:105A7C006B60606828B14368013B43600BB9FFF76A
:105A8C00DCFF6560204638BD0B461146002210B580
:105A9C00C0E90022044683600BB9204610BDFFF715
:105AAC00DCFFFAE72DE9F04786B00746884602A8E6
:105ABC00002100249946102392460293FEF7E0FE43
:105ACC00CDE9004423464246394602A8FEF7E0FEE3
:105ADC00061E1EDD1049300100F047FA054690B154
:105AEC00214602A8FEF7CCFECDE900642B464246C7
:105AFC00394602A8FEF7CCFEA04207DDCAF80050DA
:105B0C000120C9F8006006B0BDE8F0872846FEF712
:105B1C00C0FA2046F7E700BF6C630D002DE9F84F83
:105B2C00436886680B4488460E4407461C46194653
:105B3C004FF00D094FF0090AB44263D0254615F811
:105B4C00012B5C2A2BD1A14207D0A4EB010B1846E8
:105B5C005A4600F02BFA03465B44B54239D06278C2
:105B6C00752A2AD1A21CB21A032A32DDA01D04F117
:105B7C00050E4FF0000CAE4553D015F8011FA1F1E6
:105B8C0030025FFA82FBBBF1090F05D9A1F161026A
:105B9C00052A07D8A1F1570242EA0C1CEBE728466C
:105BAC000446C9E7A1F14102052A12D8A1F1370236
:105BBC00F2E703F801CB0146F2E76E2A1CD00ED8AF
:105BCC00622A13D007D82F2A11D05C2A0FD0222A90
:105BDC000DD0002023E0662AFBD10C2207E0722AAC
:105BEC000DD0742AF5D183F800A001E008221A70B8
:105BFC00A11C01330846D3E74FF00A02F7E783F8FC
:105C0C000090F5E7A14206D0641A1846224600F02F
:105C1C00CDF903462344A3EB0803BB600120BDE888
:105C2C00F88FBCF17F0FC4D92146B9E7F8B504460B
:105C3C00154600EB01160027B44210D02378032B35
:105C4C0008D129462046FFF769FF48B1A368EF54F5
:105C5C001034F1E7002BFBD1A268AB54F8E701201C
:105C6C00F8BD000038B50023C0E9003304460E48E7
:105C7C00C4E90203A9B10B78032B06D08BB91368C6
:105C8C0058684B68C35C6E2B07D013684D68586816
:105C9C008B6828445B1BA060E36011462046FFF72D
:105CAC00DCFE204638BD00BF89610D0038B50025EB
:105CBC000B46C0E90055C0E90255C0E9045504463D
:105CCC0011464BB11A78012A06D103F11002DB6898
:105CDC0082604361FFF7C1FE204638BD10B54369B1
:105CEC00044663B18068E060013B1030A060206125
:105CFC00636113B1FFF768FEA060012000E0184655
:105D0C0010BD000038B500230446036010200D467A
:105D1C00FEF7B9F928B10123C0E90133024B036046
:105D2C00C5602060204638BD58630D00F0B50446B0
:105D3C0087B00E460C202749154600F014F9014691
:105D4C0018B10023C0E90033037203A80291FFF7D6
:105D5C00D9FF029A42B9C4E90022A26003A8FEF757
:105D6C0055FA204607B0F0BD00230193294601AB3C
:105D7C003046FFF797FE18B9C4E90000A060EDE7C4
:105D8C001449029F681C00F0F0F8029B7860586878
:105D9C000028F1D02A46314600F0FAF8029B01990E
:105DAC00186801221A725A68FFF740FF0028E3D0E6
:105DBC00029B19680493039B059313B15A68013233
:105DCC005A6004AA2046FFF75FFE05A8FEF71EFAEC
:105DDC00C4E700BF6C630D00232813B502D9002063
:105DEC0002B010BDA0F10B03022B1AD8174C21786E
:105DFC00BFF35B8F11F001010BD120460191FEF72F
:105E0C004AF9019928B11248FEF764FE2046FEF7C4
:105E1C0047F90F4B1878FEF7FBFC0028DFD1012067
:105E2C00DEE7012809D800F06FF80021007CFEF7AE
:105E3C00D7FC80F00100C0B2D2E709380128EED8B7
:105E4C00FFF760FC007CFEF793FCF2E7C8E7032049
:105E5C00CCE70320232838B504460D460AD8FF2981
:105E6C0008D0FFF7B9FF28B129462046BDE83840D5
:105E7C00FEF706BC38BD38B504460D46FEF708FCE7
:105E8C00FF2810D0062804D84D2323FA00F0C307AE
:105E9C0009D42046FFF7A0FF28B129462046BDE8CB
:105EAC003840FEF7FDBB38BD0D2810B504469CBF2D
:105EBC000E34A4B22046FFF78FFF50B103212046C9
:105ECC00FEF7D6FB032804D12046BDE81040FEF7B0
:105EDC00EFBB002010BD000038B500232025438007
:105EEC00142304460380856005610649284600F0AA
:105EFC003CF804496060284600F037F8E060204622
:105F0C0038BD00BF6C630D0030B50F4D2978BFF361
:105F1C005B8F11F0010487B013D12846FEF7BBF854
:105F2C0078B101A8FFF7D8FF01AA21460748FFF76F
:105F3C0053FC2846FEF7B4F8054A0649034800F01E
:105F4C000BF8024807B030BDD8E70320DCE703208C
:105F5C0034E603208D570D000B460146184600F021
:105F6C0009B8FEF794B8FEF78EB8FEF78EB808B5F0
:105F7C00FEF75AFD10B5054C13462CB10A460146E6
:105F8C000220AFF3008010BD2046FCE700000000AB
:105F9C000A44914200F1FF3300D1704710B511F85B
:105FAC00014B03F8014F9142F9D110BD884210B555
:105FBC0001EB020402D98442234607D8431EA142B6
:105FCC0008D011F8012B03F8012FF8E70244014621
:105FDC008A4200D110BD13F8014D02F8014DF7E7CC
:105FEC0002440346934200D1704703F8011BF9E7C2
:105FFC0038B50D4B1D68AB6B04467BB91820FEF70A
:10600C00FBFC0A4A0A4BA863C0E90023094B8360D6
:10601C000B23838101220023C0E90423AB6B0022F4
:10602C001C615A6138BD00BFD0E503200E33CDABE7
:10603C0034126DE6ECDE050010F8012B11F8013B73
:10604C00012A28BF9A42F7D0D01A7047024B01465A
:10605C00186800F003B800BFD0E5032037B504463C
:10606C0008460D4600F00FF8421C114620460192DE
:10607C00FEF7E2FC044618B1019A2946FFF788FFA7
:10608C00204603B030BD034613F8012B002AFBD188
:10609C00181A0138704700001D400D0059400D00C2
:1060AC0081400D0085400D000000000041637475B7
:1060BC0061746F722076616C75650053656E736FD9
:1060CC00722076616C7565004163747561746F72D2
:1060DC002074657374004163747561746F7200523F
:1060EC00657175657374006F6E00416374756174CE
:1060FC006F7220616374697661746564006F6666A3
:10610C00004163747561746F7220646561637469B6
:10611C007661746564004661696C75726520696EA0
:10612C0020636F6D6D616E64006D617374657220B8
:10613C00616C6C6F77004C6F636B5F686F6F6B009B
:10614C00646F6F72206973206F70656E00646F6F7F
:10615C007220697320636C6F736564006D61737476
:10616C0065722064656E79006D617374657220636D
:10617C006F6D6D616E64206572726F723A006D6145
:10618C007374657220636F6D6D616E6420657272DD
:10619C006F720072657175657374006775657374E1
:1061AC002072657175657374206163636573730028
:1061BC006C6F636B5F686F6F6B00677565737420D2
:1061CC0072657175657374206572726F7200000070
:1061DC000000000000000000C34A0D00B94A0D0089
:1061EC00AF4A0D00A54A0D00994A0D008D4A0D00CD
:1061FC00814A0D00794A0D006F4A0D00654A0D0069
:10620C00ED580D006170700025592D256D2D2564FC
:10621C005425483A254D3A2553257A006173637409
:10622C00696D65000000000000000000D14E0D00FB
:10623C00D74E0D00154F0D00E54E0D00D34E0D0041
:10624C00000000000000000091540D0081540D006E
:10625C0083540D00000000000000000067550D0085
:10626C00CF550D00A5550D00A14C0D0097550D00F7
:10627C0069550D0079550D00C9550D0089550D0056
:10628C0063550D00000000000000000069560D0071
:10629C00D5560D00AD560D00A14C0D007D560D00D0
:1062AC0099560D008B560D00A7560D006B560D0020
:1062BC006F560D0000000000000000008D570D000F
:1062CC00D7570D00AF570D008F570D00B7570D0066
:1062DC00BF570D00C7570D00CF570D000000000031
:1062EC000000000067580D005D580D0053580D005C
:1062FC0009580D0047580D003B580D002F580D0044
:10630C0027580D001D580D0013580D00ED580D00A9
:10631C00000000000000000085580D008F580D0093
:10632C0099580D00A3580D00AD580D00B9580D002B
:10633C00C5580D00D1580D00D9580D00E3580D006B
:10634C00ED580D000000000000000000035A0D0085
:10635C00095A0D001F5A0D00175A0D00055A0D0051
:10636C000000000051460D00CD4A0D00154B0D00EC
:10637C00794C0D00354D0D00454D0D00914D0D0026
:10638C0071580D00C1590D00000000000000000004
:04639C0000000000FD
:0463A00000000000F9
:1063A400060000001300000028620D00D4E503205D
:1063B40000000000000000000000000000000000D9
:1063C40000000000000000000000000000000000C9
:1063D40000000000000000000000000000000000B9
:1063E40000000000000000000000000000000000A9
:1063F4000000000000000000000000000000000099
:106404000000000000000000000000000000000088
:10641400FFFFFFFF00000102030405060708090A45
:106424000B0C0D0E0F101112131415161718191A40
:086434001B1C1D1E1F20280087
:04643C007856341248
:04000003D000401CCD
:00000001FF
